:020000040800F2
:10000000600700207D070008FD010008FF010008CF
:1000100003020008070200080B02000800000000AD
:100020000000000000000000000000000F020008B7
:100030001102000800000000130200081502000869
:100040009707000897070008970700089707000818
:100050009707000897070008970700089707000808
:1000600097070008970700089707000897070008F8
:1000700097070008970700089707000897070008E8
:1000800097070008970700089707000897070008D8
:1000900097070008970700089707000897070008C8
:1000A00097070008970700089707000897070008B8
:1000B00097070008970700089707000897070008A8
:1000C0009707000897070008970700089707000898
:1000D00097070008F306000897070008970700082D
:1000E0009707000897070008970700089707000878
:1000F0009707000897070008970700089707000868
:100100009707000897070008970700089707000857
:100110009707000897070008970700089707000847
:100120009707000897070008970700089707000837
:1001300000F002F800F03AF80AA090E8000C8244BF
:100140008344AAF10107DA4501D100F02FF8AFF29C
:10015000090EBAE80F0013F0010F18BFFB1A43F0A5
:1001600001031847A0120000C0120000103A24BF7B
:1001700078C878C1FAD8520724BF30C830C144BF0C
:1001800004680C607047000000230024002500264E
:10019000103A28BF78C1FBD8520728BF30C148BFEA
:1001A0000B6070471FB51FBD10B510BD01F0FBF807
:1001B0001146FFF7F7FF00F008F801F019F903B452
:1001C000FFF7F2FF03BC00F037FA00F0C7F900F0C8
:1001D0002DFA4FF4165000F03DFA00F00BF9C8204C
:1001E00000F0F8F900F053F900F064F900F04FF96D
:1001F00003E00124204600F08DF9FAE7704700BFC4
:10020000FEE700BFFEE700BFFEE700BFFEE7704766
:1002100070477047704700000CB5002001900090B7
:100220006B48006840F480306949086000BF684846
:10023000006800F4003000900198401C0190009884
:1002400018B90198B0F5A06FF1D16148006810F4B9
:10025000003F02D00120009001E0002000900098B3
:10026000012842D15B48006840F0100059490860FD
:100270000846006820F0030008600846006840F067
:10028000020008605248406851494860084640688A
:1002900048600846406840F480604860084640680E
:1002A00020F47C1048600846406840F4E81048603C
:1002B0000846006840F08070086000BF444800684D
:1002C00010F0007FFAD04248406820F00300404917
:1002D00048600846406840F00200486000BF3C4863
:1002E000406800F00C000828F9D10CBD10B5FFF7EC
:1002F00093FF10BD10B53648006840F00100344946
:10030000086008464068344908403149486008465A
:100310000068324908402E4908600846006820F409
:10032000802008600846406820F4FE0048604FF4D2
:100330001F008860FFF7DAFF4FF00060284908606F
:1003400010BD10B5002100200022214B5B6803F096
:100350000C0121B1042906D0082928D107E0214B3E
:10036000214C236027E01F4B1F4C236023E0184BD8
:100370005B6803F47010164B5B6803F48032022351
:1003800003EB904022B9194B4343174C23600DE017
:100390000F4B5B6813F4003F04D0144B4343124CE3
:1003A000236003E00F4B43430F4C236003E00D4BEE
:1003B0000D4C236000BF00BF054B5B68C3F3031304
:1003C0000B4CE15C084B1B68CB40074C236010BD15
:1003D00000100240002002400000FFF8FFFFF6FE80
:1003E00008ED00E000127A000000002000093D0046
:1003F0000400002008B50121082000F063FD4FF43F
:100400002240ADF8000010208DF8030003208DF885
:10041000020069464C4800F09FFA08BD70B50446DA
:1004200000204A4908604A49C1F8B40105461CE069
:1004300014F0010F03D001204649086002E00020BB
:10044000444908604FEA64044FF0010042490860E3
:100450004FF0020000F09BF800203D49C1F8B401C4
:10046000022000F094F8681CC5B2082DE0DB70BDD6
:1004700010B50A2000F08BF83020FFF7CFFF0120E5
:10048000324908604FF0320000F0A4F810BD10B5FA
:100490000A2000F07CF800202C4908604FF0200072
:1004A000FFF7BCFF01202A49C1F8A401322000F067
:1004B00091F810BD10B50A2000F069F80120FFF78F
:1004C000ADFF0120214908604FF0320000F082F8B2
:1004D00010BD10B5F020FFF7A1FF01201B490860F7
:1004E00010BD70B505460C46012000F073F8284693
:1004F000FFF794FF022000F04AF82046FFF78EFF36
:10050000022000F044F8E020FFF788FF01200F49A7
:10051000086070BD70B50446012C13D1F021A920EC
:10052000FFF7DFFFFFF7D5FF052503E04FF4FA7073
:1005300000F050F82800A5F10101CDB2F6D1FFF787
:1005400097FF00BF00BF70BD000C0140A481214295
:1005500000802142BC812142B481214210B56FF05C
:10056000040000F07BF92D4800682D49B0FBF1F044
:100570002C4908700846007800EB4001C1EBC01020
:100580004FF6FF7101EAC0002749088010BD0146FF
:10059000244A12784A434FF0E0235A6100229A61BC
:1005A0001A46126942F001021A6100BF4FF0E022C0
:1005B000106910F0010F02D010F4803FF6D04FF018
:1005C000E022126922F001024FF0E0231A610022BA
:1005D0009A6170470146144A12884A434FF0E0235B
:1005E0005A6100229A611A46126942F001021A61A8
:1005F00000BF4FF0E022106910F0010F02D010F49C
:10060000803FF6D04FF0E022126922F001024FF055
:10061000E0231A6100229A61704700000000002068
:1006200000127A00140000201600002010B54FF4CC
:10063000A06000F0C3F810BD014600BF704700BFC6
:100640004A4A128812F0400FFAD0C2B2474B1B1D23
:100650001A80704710B586B00446012144F20400A8
:1006600000F030FC414800F095FC4FF40070ADF80C
:10067000140003208DF8160018208DF8170005A926
:100680003B4800F069F94FF48060ADF81400042095
:100690008DF8170005A9364800F05EF925208DF881
:1006A000000003208DF801008DF8020001208DF874
:1006B0000300684600F087F801940020ADF80800B8
:1006C000ADF80A00ADF80C00ADF810000C20ADF844
:1006D0000E0001A9254800F0A0FC012240F225519E
:1006E000224800F032FD0121204800F022FD06B032
:1006F00010BD10B540F225511C4800F00BFE10B3A0
:100700001A4800F087FDC4B21A48008810F4004F60
:100710002BD11848008810F4804F0CD00A2C03D03D
:1007200000201449088020E01248008840F400406E
:100730001049088019E00D2C06D10E48008840F4BD
:1007400080400C49088010E00A480088C0F30D0082
:1007500009490C5407480088401C0649088008468F
:100760000088C72801DD0020088010BD0038014046
:10077000000801401800002034000020094880478C
:1007800009480047FEE7FEE7FEE7FEE7FEE7FEE773
:10079000FEE7FEE7FEE7FEE704480549054A064B8B
:1007A00070470000F50200083101000860010020D8
:1007B00060070020600300206003002031490143EE
:1007C000314A1160704770B5002100230F22C478B0
:1007D0000CB32D4C246804F4E064C4F5E064210AF1
:1007E000C1F10403CA40447804FA03F18478144048
:1007F00021430901254C0678A155047804F01F0512
:100800000124AC4005786D114FF0E02606EB85051C
:10081000C5F8004109E0047804F01F050124AC404C
:100820001B4D0678761145F8264070BD194A0A40DE
:100830000243154B1B1F1A60704739B1124A121D33
:1008400012680243104B1B1D1A6006E00E4A121D6F
:10085000126882430C4B1B1D1A607047042808D194
:100860004FF0E021096941F004014FF0E0221161ED
:1008700007E04FF0E021096921F004014FF0E02288
:10088000116170470000FA050CED00E000E400E0A3
:1008900080E100E080FFFF1F10B50446CA48844293
:1008A00008D10121042000F027FB0021042000F0E2
:1008B00023FB46E0C548844208D10121082000F00E
:1008C0001BFB0021082000F017FB3AE0C0488442DF
:1008D00008D10121102000F00FFB0021102000F0B2
:1008E0000BFB2EE0BB48844208D10121202000F000
:1008F00003FB0021202000F0FFFA22E0B6488442EA
:1009000008D10121402000F0F7FA0021402000F03A
:10091000F3FA16E0B148844208D10121802000F0AA
:10092000EBFA0021802000F0E7FA0AE0AC488442AC
:1009300007D10121801500F0DFFA0021A01500F099
:10094000DBFA10BD10B50121084600F0D5FA0021F0
:10095000012000F0D1FA10BD2DE9F041024600253A
:100960000026002000230024002791F803C00CF08B
:100970000F0591F803C01CF0100F03D091F802C0CE
:100980004CEA050591F800C0BCF1000F31D01468A5
:1009900000202BE04FF0010C0CFA00F3B1F800C07E
:1009A0000CEA03069E4220D183004FF00F0C0CFA94
:1009B00003F7BC4305FA03FC4CEA040491F803C0B6
:1009C000BCF1280F06D14FF0010C0CFA00FCC2F864
:1009D00014C00AE091F803C0BCF1480F05D14FF0F4
:1009E000010C0CFA00FCC2F810C0401C0828D1D33E
:1009F0001460B1F800C0BCF1FF0F34DD5468002072
:100A00002EE000F1080C4FF0010808FA0CF3B1F8E1
:100A100000C00CEA03069E4221D183004FF00F0C68
:100A20000CFA03F7BC4305FA03FC4CEA040491F802
:100A300003C0BCF1280F05D100F1080C08FA0CF82E
:100A4000C2F8148091F803C0BCF1480F07D100F13F
:100A5000080C4FF0010808FA0CF8C2F81080401C8E
:100A60000828CED35460BDE8F0814FF6FF710180B5
:100A7000022181700421C1707047024600209368F2
:100A80000B4201D0012000E0002070470146886839
:100A900080B2704702460020D3680B4201D001208B
:100AA00000E0002070470146C86880B270470161CD
:100AB0007047416170470AB1016100E041617047D0
:100AC000C16070474FF480320A4382618161826164
:100AD00082698269704702460020424B18684FF6CF
:100AE0008073184040EA021008433E4B186070477C
:100AF0003D49C8617047F0B50A4600230024002133
:100B0000002500F00046B6F1004F02D1354EF169E4
:100B100001E0344E7168C0F3034583B200F440161F
:100B2000B6F5401F08D121F070612E4E766826F090
:100B300070662C4F7E6012E000F48016B6F5801FC0
:100B400006D1032606FA05F4A14341F0706106E0E0
:100B5000460D360103FA06F6B14341F0706122B149
:100B6000460D360103FA06F6314300F00046B6F1B1
:100B7000004F02D11B4EF16101E01A4E7160F0BDD1
:100B800030B500228B071C0F0F2303FA04F2154B1C
:100B900008338C1053F824309343124C08348D10D2
:100BA00044F8253023468C1053F824308C07240F4A
:100BB00000FA04F423430B4C08348D1044F825301C
:100BC00030BD0A490860704700080140000C014030
:100BD000001001400014014000180140001C0140B9
:100BE000002001400000014000002042DC002042C3
:100BF000DD48006840F00100DB49086008464068B5
:100C0000DA490840D849486008460068D849084091
:100C1000D54908600846006820F48020086008462E
:100C2000406820F4FE0048604FF41F008860704761
:100C3000CD49096821F48031CB4A11601146096819
:100C400021F480211160B0F5803F03D0B0F5802FF2
:100C50000ED106E0C449096841F48031C24A1160EE
:100C600007E0C149096841F4A021BF4A116000E0D2
:100C700000BF00BF704710B50146002200230020CE
:100C80004A11012A02D1B84C236806E0022A02D197
:100C9000B54C236A01E0B44C636A01F01F020124E1
:100CA00094401C4201D0012000E0002010BD38B566
:100CB000002000900024002500BF3120FFF7DBFF5B
:100CC00005460098401C00900098B0F5A06F01D038
:100CD000002DF2D03120FFF7CEFF08B1012400E053
:100CE0000024204638BD014600209F4A106820F0AD
:100CF000F80040EAC100106070479E4908607047E4
:100D000002460020984B586820F47C1042EA010308
:100D10001843954B586070479649086670470146DE
:100D20000020914A506820F003000843506070474B
:100D30008D48406800F00C007047014600208A4A48
:100D4000506820F0F00008435060704701460020D2
:100D5000854A506820F4E0600843506070470146BF
:100D60000020814A506820F4605040EAC100506081
:100D7000704729B17C4A527A02437B4B5A7204E095
:100D8000794A527A8243784B5A7270477A4908609E
:100D9000704701460020744A506820F440400843E0
:100DA000506070470021754A11706F4A82F8201018
:100DB000012802D0042808D103E001216F4A1170F4
:100DC00004E005216D4A117000E000BF00BF7047CC
:100DD0006B49086070476449096A0143624A1162BD
:100DE0007047674944390860704730B500210022D8
:100DF000002400235C4D6D6805F00C0121B104292D
:100E000005D0082923D105E05E4D056022E05D4D47
:100E100005601FE0544D6D6805F47012524D6D6809
:100E200005F48034022505EB92421CB9564D55431A
:100E300005600BE04C4D6D6815F4003F03D0524D3A
:100E40005543056002E04F4D5543056002E04D4DAE
:100E5000056000BF00BF444D6D6805F0F001090951
:100E60004A4D6B5C0568DD4045603F4D6D6805F49B
:100E7000E061090A454D6B5C4568DD4085603A4D8F
:100E80006D6805F46051C90A404D6B5C4568DD40F2
:100E9000C560354D6D6805F44041890B3C4D6B5C78
:100EA000C568B5FBF3F5056130BD29B12E4A52691D
:100EB00002432D4B5A6104E02B4A526982432A4B6C
:100EC0005A61704729B1284A92690243264B9A61B8
:100ED00004E0254A92698243234B9A61704729B105
:100EE000214AD2690243204BDA6104E01E4AD269EA
:100EF00082431D4BDA61704729B11B4AD268024315
:100F0000194BDA6004E0184AD2688243164BDA6063
:100F1000704729B1144A12690243134B1A6104E065
:100F2000114A12698243104B1A61704714494039C3
:100F3000086070470F49C86470470B49C871704713
:100F40000948406A40F0807007494862704701468E
:100F50000020054A92680A4201D0012000E00020EA
:100F60007047014988727047001002400000FFF886
:100F7000FFFFF6FE00004242D8004242201002402D
:100F80008004424200127A0000093D002000002047
:100F90003000002010B50446FB48844209D10121ED
:100FA0008803FFF7A9FF00214FF48040FFF7A4FF5B
:100FB00032E0F648844209D101214804FFF7A9FF35
:100FC00000214FF40030FFF7A4FF25E0F0488442F1
:100FD00009D101218804FFF79CFF00214FF48020F4
:100FE000FFF797FF18E0EB48844209D10121C804BC
:100FF000FFF78FFF00214FF40020FFF78AFF0BE07F
:10100000E548844208D101210805FFF782FF00214D
:101010004FF48010FFF77DFF10BD2DE9F04786B03B
:1010200005460E460024A24600BFA1460027B0890F
:1010300000B100BF2F462C8A4CF6FF700440F088A8
:1010400004432C82AC894EF6F3100440B0883189F9
:101050000843718908430443AC81AC8A4FF6FF40D2
:101060000440B0890443AC8201A8FFF7BEFEC64825
:10107000874202D1DDF810A001E0DDF80CA0A889BC
:1010800010F4004F08D00AEBCA0000EB0A103168D8
:101090004900B0FBF1F807E00AEBCA0000EB0A10C8
:1010A00031688900B0FBF1F86420B8FBF0F004016E
:1010B0002009642101FB1089A88910F4004F08D091
:1010C000322000EBC900B0FBF1F000F00700044350
:1010D00008E0322000EB09106421B0FBF1F000F0D1
:1010E0000F0004432C8106B0BDE8F0874FF4165181
:1010F000016000218180C18001810C21418100219A
:101100008181704710B502460020108A4FF2FF031C
:1011100018400B884C8823438C882343CC88234376
:101120001843108210BD0021018041808180C18060
:10113000704721B1828942F40052828104E08289A1
:101140004DF6FF731A4082817047F0B503460024C4
:10115000002600250020A1F510676A3F00D100BFDE
:101160001846C1F3421401F01F06012707FA06F5DD
:10117000012C01D10C3004E0022C01D1103000E030
:1011800014301AB107682F43076002E00768AF43C5
:101190000760F0BD1AB1838A0B43838202E0838A21
:1011A0008B4383827047028A4FF6F0731A400282A3
:1011B000028A0A430282704782894FF2FF731A4003
:1011C000828182890A438281704721B1828942F0FB
:1011D0000202828104E082894FF6FD731A40828107
:1011E0007047028A4FF6DF731A400282028A0A436E
:1011F0000282704721B1028A42F48042028204E0F6
:10120000028A4BF6FF731A4002827047C1F308024C
:101210008280704701468888C0F308007047818942
:1012200041F0010181817047028BD2B20283028BAF
:1012300042EA012202837047028B02F47F4202835A
:10124000028B0A430283704721B1828A42F0200256
:10125000828204E0828A4FF6DF731A4082827047EE
:1012600021B1828A42F01002828204E0828A4FF623
:10127000EF731A408282704721B1828A42F00802DD
:10128000828204E0828A4FF6F7731A4082827047A6
:1012900021B1828942F40042828103E08289C2F353
:1012A0000E028281704721B1828A42F400628282FA
:1012B00004E0828A4FF2FF731A4082827047828A6A
:1012C0004FF6FB731A408282828A0A4382827047F9
:1012D00021B1828A42F00202828204E0828A4FF6C1
:1012E000FD731A408282704702460020B1F5007FEC
:1012F00000D100BF13880B4201D0012000E0002084
:10130000704701F40072B2F5007F00D100BFCA43FC
:101310000280704770B5024600240023002500209B
:10132000A1F510666A3E00D100BFC1F3421501F07D
:101330001F03012606FA03F3012D02D196893340DB
:1013400006E0022D02D1168A334001E0968A33402E
:101350000C12012606FA04F41688344013B10CB1BD
:10136000012000E0002070BD10B500220023A1F58F
:1013700010646A3C00D100BF0A1201249440A3B259
:10138000DC43048010BD00000038014000440040F0
:1013900000480040004C004000500040704770473B
:1013A000704770477047754600F028F8AE46050054
:1013B0006946534620F00700854618B020B5FFF770
:1013C000EBF9BDE820404FF000064FF000074FF06A
:1013D00000084FF0000B21F00701AC46ACE8C00953
:1013E000ACE8C009ACE8C009ACE8C0098D4670475C
:1013F0000446AFF300802046FEF7E1FE0048704748
:10140000FC0000202414000800000020340000002C
:101410006C01000858140008340000202C0700005C
:101420008801000800A24A0400000000000000003B
:101430000102030406070809000000000000000084
:101440000000000000000000010203040102030488
:08145000060708090204060862
:0400000508000131BD
:00000001FF
