:020000040800F2
:10000000A0070020D5010008A50800081D0700086A
:10001000A1080008C50400082B1600080000000015
:100020000000000000000000000000008B0B000832
:10003000F504000800000000510900089D0C0008AC
:10004000EF010008EF010008EF010008EF010008D0
:10005000EF010008EF010008F9040008EF010008B3
:100060002D0500086105000895050008EF0100084E
:10007000EF010008EF010008EF010008EF010008A0
:10008000EF010008EF010008EF010008EF01000890
:10009000EF010008EF010008EF010008EF01000880
:1000A000EF010008EF010008EF010008EF01000870
:1000B000EF010008410F0008EF010008EF01000800
:1000C000EF010008EF010008EF010008EF01000850
:1000D000EF010008C913000851140008EF010008DF
:1000E000EF010008EF010008EF010008EF01000830
:1000F000EF010008EF010008EF010008EF01000820
:10010000EF010008EF010008EF010008EF0100080F
:10011000EF010008EF010008EF010008EF010008FF
:10012000EF010008EF010008EF010008EF010008EF
:1001300000F002F800F03FF80AA090E8000C8244BA
:100140008344AAF10107DA4501D100F034F8AFF297
:10015000090EBAE80F0013F0010F18BFFB1A43F0A5
:1001600001031847B4170000D4170000103A24BF49
:1001700078C878C1FAD8520724BF30C830C144BF0C
:1001800004680C607047000000230024002500264E
:10019000103A28BF78C1FBD8520728BF30C148BFEA
:1001A0000B607047642900F07780002070471FB50E
:1001B0001FBD10B510BD00F037F91146FFF7F7FF6E
:1001C00001F08EFA00F055F903B4FFF7F2FF03BC1B
:1001D00001F02DFA0948804709480047FEE7FEE78D
:1001E000FEE7FEE7FEE7FEE7FEE7FEE7FEE7FEE7E7
:1001F00004480549054A064B70470000A10C000859
:1002000031010008A0010020A0070020A003002069
:10021000A0030020704700000FB4044910B503AAE2
:10022000029800F0D3F810BC5DF814FB1800002011
:100230002DE9F0410E460446002020622046E16888
:10024000884730B3252805D0D4E901219047206A9A
:10025000401CF2E7E168204600278847050018D0D7
:10026000A5F14100192802D820354FF40067324625
:10027000294620462760FFF795FF40B1012804D0AA
:10028000F61D26F007060836D8E7361DD6E72846BD
:10029000DAE7206ABDE8F0812DE9F0410646002446
:1002A00010687529314616A510D0AFF300800028DC
:1002B00002DA404213A507E031688A0701D512A58A
:1002C00002E0490704D511A5012401E0AFF3008045
:1002D00000210A2206F1240709E0B0FBF2FCB0FB82
:1002E000F2F302FB1C00303078541846491C0028F9
:1002F000F3D123462A463046BDE8F04100F00CB861
:10030000000000002D0000002B0000002000000075
:1003100070477047704770472DE9F0470D46994682
:100320009246044600F124080168880604D5E06975
:1003300021F01001216000E00120A84201DD471BEF
:1003400000E00027A1697A1902EB0900081AA061F0
:100350002078C00602D42046AFF30080002608E0D3
:10036000D4E901211AF806009047206A401C761C47
:1003700020624E45F4DB2078C0060AD52046AFF354
:10038000008006E0D4E9012130209047206A401C1B
:100390002062381EA7F10107F4DC07E0D4E901214F
:1003A00018F805009047206A401C2062281EA5F11D
:1003B0000105F3DC2046AFF300802078000602D56B
:1003C0000220BDE8F0870120FBE70000074B70B575
:1003D0000D467B4400F011F80446284600F020F852
:1003E00010B14FF0FF3070BD204670BDEF1200001D
:1003F00001694A1C02610878704700B58FB0CDE9E9
:1004000001310021059105497944CDE903101146D8
:100410006846FFF70DFF0FB000BD0000E5FFFFFFCE
:10042000007B00F080007047754600F02BF8AE4668
:1004300005006946534620F00700854618B020B5F0
:10044000FFF7D6FEBDE820404FF000064FF0000752
:100450004FF000084FF0000B21F00701AC46ACE86C
:10046000C009ACE8C009ACE8C009ACE8C0098D46D9
:10047000704710B50446AFF300802046BDE8104039
:10048000FFF7A2BE004870474001002008B50121D7
:10049000082000F06FFA4FF48070ADF800001020D3
:1004A0008DF8030003208DF802006946044800F02F
:1004B0009DF84FF48071024800F02CF908BD00004F
:1004C000000C014000BFFEE708B50121082000F044
:1004D00051FA0120ADF8000010208DF80300032030
:1004E0008DF802006946024800F080F808BD00005F
:1004F000001001407047000010B50A2001F0BCF860
:100500000121084800F0FDF8012807D106480068DD
:1005100008B9012000E0002003490860012000F034
:100520005FF810BD00080140A081214210B50A20EB
:1005300001F0A2F80421084800F0E3F838B90748B0
:10054000006808B9012000E0002004490860042088
:1005500000F046F810BD00000018014094812142CF
:1005600010B50A2001F088F80821084800F0C9F801
:1005700038B90748006808B9012000E000200449A4
:100580000860082000F02CF810BD000000180140A1
:100590009401234210B50A2001F06EF810210C4896
:1005A00000F0AFF880B90B48006808B9012000E0FE
:1005B0000020084908600848D0F8940108B90120D3
:1005C00000E0002005490860102000F009F810BD87
:1005D00000180140948121420000234294012342EB
:1005E0000149086070470000140401402DE9F04102
:1005F000024600250026002000230024002791F851
:1006000003C00CF00F0591F803C00CF0100CBCF106
:10061000000F03D091F802C04CEA050591F800C024
:10062000BCF1000F31D0146800202BE04FF0010C1A
:100630000CFA00F3B1F800C00CEA03069E4220D188
:1006400083004FF00F0C0CFA03F7BC4305FA03FCD0
:100650004CEA040491F803C0BCF1280F06D14FF016
:10066000010C0CFA00FCC2F814C00AE091F803C0B7
:10067000BCF1480F05D14FF0010C0CFA00FCC2F898
:1006800010C0401C0828D1D31460B1F800C0BCF1E0
:10069000FF0F34DD546800202EE000F1080C4FF00D
:1006A000010808FA0CF3B1F800C00CEA03069E42F8
:1006B00021D183004FF00F0C0CFA03F7BC4305FA6D
:1006C00003FC4CEA040491F803C0BCF1280F05D1E7
:1006D00000F1080C08FA0CF8C2F8148091F803C075
:1006E000BCF1480F07D100F1080C4FF0010808FADF
:1006F0000CF8C2F81080401C0828CED35460BDE826
:10070000F0810246002093680B400BB1012000E00D
:1007100000207047416170470161704700BFFEE7EC
:1007200010B50446002008490860A1B2074800F04F
:100730000CFA00BF8021054800F0FEF90028F9D12D
:1007400001200149086010BD8001224200380040AC
:1007500008B50121442000F00DF91C20ADF800007F
:1007600048208DF8030069460648FFF73FFF012047
:10077000ADF8000028208DF8030069460248FFF715
:1007800035FF08BD001801400008014010B50446BF
:1007900014B101202C4908702B480078002837D06C
:1007A00010212A48FFF7ADFF78B108212748FFF74D
:1007B000A8FF50B104212548FFF7A3FF28B101216C
:1007C0002348FFF79EFF012822D10A2000F054FFA2
:1007D00000201D49087010211C48FFF792FF08B93E
:1007E000012010BD08211948FFF78BFF08B902202E
:1007F000F7E704211548FFF784FF08B90320F0E765
:1008000001211348FFF77DFF01281BD10420E8E7F1
:1008100010210E48FFF775FF012813D108210B485E
:10082000FFF76FFF01280DD104210848FFF769FF8A
:10083000012807D101210648FFF763FF10B9012005
:10084000014908700020CCE71E000020001801407C
:100850000008014008B50121482000F08BF8202055
:10086000ADF8000010208DF8030003208DF8020081
:1008700069460948FFF7BAFE20210748FFF74CFFF9
:100880002020ADF8000069460448FFF7AFFE2021A4
:100890000248FFF741FF08BD000C0140001801406D
:1008A00000BFFEE77047000070B5002100230F2253
:1008B000C47804B3154C246804F4E064C4F5E0641F
:1008C000210AC1F10403CA40447804FA03F1847890
:1008D0001440214309010E4C0678A155047804F018
:1008E0001F050124AC4005786D11AD0005F1E02530
:1008F000C5F8004109E0047804F01F050124AC406C
:10090000044D0678761145F8264070BD0CED00E0E8
:1009100000E400E080E100E002490143024A116086
:10092000704700000000FA050CED00E010B5044629
:100930004FF40050FFF7F4FE192000F09DFE44F440
:100940006040FFF7EDFE4FF47040FFF7E9FE10BD89
:100950007047000029B1064AD2690243044BDA61AC
:1009600004E0034AD2698243014BDA617047000018
:100970000010024029B1064A92690243044B9A6171
:1009800004E0034A92698243014B9A617047000078
:100990000010024030B500210022002400232D4D1C
:1009A0006D6805F00C0121B1042905D0082923D177
:1009B00005E0294D056022E0274D05601FE0254D2B
:1009C0006D6805F47012234D6D6805F480340225BE
:1009D00005EB92421CB9214D554305600BE01D4DBE
:1009E0006D6805F400351DB11C4D5543056002E0EE
:1009F000194D5543056002E0174D056000BF00BF6B
:100A0000144D6D6805F0F0010909154D6B5C056822
:100A1000DD4045600F4D6D6805F4E061090A104D39
:100A20006B5C4568DD4085600A4D6D6805F460517A
:100A3000C90A0B4D6B5C4568DD40C560054D6D68AE
:100A400005F44041890B074D6B5CC568B5FBF3F5B8
:100A5000056130BD0010024000127A0000093D001F
:100A6000230000203300002010B504464FF400504E
:100A7000FFF756FE192000F0FFFD4FF40050FFF77E
:100A80004FFE322000F0F8FD44F42040FFF748FE0E
:100A90004FF43040FFF744FE10BD000000B587B0B2
:100AA00001210820FFF766FF01218803FFF752FFAD
:100AB0004FF42040ADF8180018208DF81B000320DB
:100AC0008DF81A0006A91448FFF790FD4FF4404036
:100AD000ADF804004FF48270ADF806004FF40060EA
:100AE000ADF808000020ADF80A000120ADF80C00B8
:100AF0004002ADF80E000820ADF810008020ADF8DF
:100B0000120001A9054800F022F80121034800F075
:100B100007F807B000BD0000000C0140003800409D
:100B200021B1028842F04002028004E002884FF6C0
:100B3000BF731A40028070470246002013890B40A1
:100B40000BB1012000E0002070478181704710B593
:100B50000022028802F441520B884C8823438C887F
:100B60002343CC8823430C8923434C8923438C891A
:100B70002343CC8923431A430280838B4FF2FF74B3
:100B8000234083830B8A038210BD704710B500F0A9
:100B900001F810BD0CB500200190009033480068AA
:100BA00040F480303149086000BF3048006800F4EC
:100BB000003000900198401C0190009818B90198ED
:100BC000B0F5A06FF1D12948006800F4003010B1F1
:100BD0000120009001E0002000900098012843D1FE
:100BE0002348006840F0100021490860084600686A
:100BF00020F0030008600846006840F0020008602A
:100C00001A484068194948600846406848600846E4
:100C1000406840F4806048600846406820F47C10DA
:100C200048600846406840F4E8104860084600689C
:100C300040F08070086000BF0C48006800F0007051
:100C40000028F9D00948406820F0030007494860AF
:100C50000846406840F00200486000BF0348406812
:100C600000F00C000828F9D10CBD00000010024073
:100C700000200240042808D14FF0E021096941F02A
:100C800004014FF0E022116107E04FF0E021096913
:100C900021F004014FF0E02211617047704700001D
:100CA00010B51348006840F001001149086008467B
:100CB0004068104908400E494860084600680E49DF
:100CC00008400B4908600846006820F4802008604E
:100CD0000846406820F4FE0048604FF41F0088601A
:100CE000FFF754FF4FF000600449086010BD00009A
:100CF000001002400000FFF8FFFFF6FE08ED00E0E4
:100D0000F0B50C46154600220021068C4FF6FE7702
:100D10003E400684028B018C4FF60C7632407E1CDE
:100D200006EA03162E433243104EB0420ED0104E48
:100D3000B0420BD0B0F1804F08D00E4EB04205D07B
:100D40000D4EB04202D00D4EB04206D14FF6FD76A8
:100D5000314044F00106314305E04FF6F57631406D
:100D600044F00106314302830184F0BD002C0140B0
:100D7000003401400004004000080040000C004026
:100D8000F0B50C461546002200210026078C4FF6D0
:100D9000EF7C07EA0C070784028B018C4FF6FF7784
:100DA00007EA041640F6FF473A404FF6FF7707EA96
:100DB00003373A434FF6FF7707EA05273A43114FC7
:100DC000B8420ED0104FB8420BD0B0F1804F08D0CF
:100DD0000E4FB84205D00E4FB84202D00D4FB84268
:100DE00006D14FF6DF77394046F01007394305E06A
:100DF0004FF65F77394044F010073943028301848E
:100E0000F0BD0000002C014000340140000400400F
:100E100000080040000C0040F0B50C4615460022CA
:100E200000210026078C4FF6FF6C07EA0C070784A9
:100E3000828B018C4FF6FF7707EA04264FF60C777A
:100E40003A404FF6FF7707EA03172F433A43114F13
:100E5000B8420ED0104FB8420BD0B0F1804F08D03E
:100E60000E4FB84205D00E4FB84202D00D4FB842D7
:100E700006D14FF6FF57394046F48077394305E0F5
:100E80004FF2FF57394044F480773943828301841D
:100E9000F0BD0000002C014000340140000400407F
:100EA00000080040000C0040F0B50C46154600223A
:100EB00000210026078C4EF6FF7C07EA0C0707840A
:100EC000828B018C4FF6FF7707EA043640F6FF4726
:100ED0003A404FF6FF7707EA05273A434FF6FF7788
:100EE00007EA03373A43114FB8420ED0104FB842C9
:100EF0000BD0B0F1804F08D00E4FB84205D00E4F46
:100F0000B84202D00D4FB84206D14DF6FF773940B6
:100F100046F48057394305E047F6FF57394044F41B
:100F20008057394382830184F0BD0000002C0140CA
:100F3000003401400004004000080040000C004064
:100F400010B50121084800F0A5F858B10121064864
:100F500000F082F80548006808B9012000E0002090
:100F60000249086010BD00000004004094012342C3
:100F70007FB505460C4601210220FFF7EBFCADF8DA
:100F80000850ADF804400020ADF80A00ADF80600A6
:100F900001A90E4800F01EF9012211460B4800F08D
:100FA000E1F81D208DF8000000208DF801000320DD
:100FB0008DF8020001208DF803006846FFF774FCED
:100FC0000121024800F04BF87FBD00000004004002
:100FD00030B587B005460C4601210820FFF7BAFC62
:100FE00001210420FFF7C6FC0220ADF81800032001
:100FF0008DF81A0004208DF81B0006A91448FFF78D
:10100000F5FAADF81050ADF80C400020ADF8120024
:10101000ADF80E0003A90F4800F0DCF80420ADF88D
:1010200000000020ADF802000120ADF8040000200F
:10103000ADF806000320ADF808006946054800F049
:101040003BF80121034800F00AF807B030BD00006A
:1010500000080140000C0040CA430282704721B1E1
:10106000028842F00102028004E002884FF6FE731B
:101070001A40028070470146088F70470146888CED
:10108000704702460020138A0B400BB1012000E09C
:101090000020704730B50246002000230024158A46
:1010A00005EA0103958905EA010413B10CB1012099
:1010B00000E0002030BD000070B505460C46244815
:1010C00085420ED0234885420BD0B5F1804F08D021
:1010D0002148854205D02148854202D020488542DA
:1010E00000D100E000BF208850B92389A288618820
:1010F0002846FFF705FEE188284600F03EF825E087
:10110000208804280AD12389A28861882846FFF70D
:1011100037FEE188284600F039F817E020880828D3
:101120000AD12389A28861882846FFF775FEE188E5
:10113000284600F038F809E02389A288618828460B
:10114000FFF7B2FEE188284600F036F870BD0000D7
:10115000002C014000340140000400400008004021
:10116000000C00401AB183890B43838102E083891C
:101170008B438381704781847047028B4FF6F373F2
:101180001A400283028B0A4302837047028B4FF29C
:10119000FF331A400283028B4FF6FF7303EA0123E9
:1011A0001A4302837047828B4FF6F3731A4082838F
:1011B000828B0A4382837047828B4FF2FF331A403F
:1011C0008283828B4FF6FF7303EA01231A438283E3
:1011D00070470000002202881D4B98420ED01D4B24
:1011E00098420BD0B0F1804F08D01B4B984205D0ED
:1011F0001A4B984202D01A4B984204D14FF68F7383
:101200001A404B881A43174B984207D0164B984206
:1012100004D04FF6FF431A40CB881A4302808B88D4
:1012200083850B8803850A4B98420BD0094B984263
:1012300008D00E4B984205D00D4B984202D00D4B72
:10124000984201D10B7A0386012383827047000004
:10125000002C014000340140000400400008004020
:10126000000C00400010004000140040004001400D
:10127000004401400048014010B500F077F80AE052
:101280000A48FFF7FBFE4FF60B61884203DD074873
:10129000FFF7F4FE10BD04210448FFF7F2FE00281A
:1012A000EED00248FFF7E7FEF4E70000000C004034
:1012B000F0B585B00746781E81B24FF6FF70FFF794
:1012C00087FE002408E0FFF7D7FF2DF814000A205E
:1012D00000F0D2F9601CC4B20A2CF4DB002416E042
:1012E000601CC5B20FE03DF814003DF815108842AF
:1012F00007DD3DF814603DF815002DF814002DF8B9
:101300001560681CC5B20A2DEDDB601CC4B2092C47
:10131000E6DB0026022405E03DF81400304486B2E6
:10132000601CC4B2082CF7DB062096FBF0F00849DD
:1013300008800846018807A0FEF76EFF0448008871
:10134000B0F5004F02DB012005B0F0BD0020FBE747
:1013500020000020747061645F64656661756C7460
:101360005F76616C3A25640D0A00000008B5012122
:101370000420FFF7FFFA0220ADF8000010208DF8DE
:10138000030003208DF8020069460D48FFF72EF98F
:1013900002210B48FFF7BEF9052000F06DF900218E
:1013A0000848FFF7E8FE05210648FFF755FE042030
:1013B0008DF8030069460248FFF718F908BD0000E0
:1013C00000080140000C004010B540F225511D48B6
:1013D00000F06AF810B31B4800F022F9C4B21A48B2
:1013E000008800F40040C8B91748008800F4804025
:1013F00060B10A2C03D000201349088020E0124875
:10140000008840F400401049088019E00D2C06D1F6
:101410000D48008840F480400B49088010E00A48DD
:101420000088C0F30D0009490C5407480088401C8F
:101430000549088008460088C72801DD002008808B
:1014400010BD0000003801401C00002038000020C2
:1014500010B540F225510B4800F026F880B109483C
:1014600000F0DEF8C4B208480078402808DA0748DF
:1014700005490978445404480078401C0249087022
:1014800010BD0000004400401F00002000010020AB
:1014900021B1828942F40052828104E082894DF6B2
:1014A000FF731A408281704770B502460024002302
:1014B0000025002040F66A16B14200D100BFC1F3FA
:1014C000421501F01F03012606FA03F3012D02D194
:1014D0009689334006E0022D02D1168A334001E09E
:1014E000968A33400C12012606FA04F4168834401A
:1014F00013B10CB1012000E0002070BDF0B503462F
:10150000002400260025002040F66A17B94200D1C9
:1015100000BF1846C1F3421401F01F06012707FA65
:1015200006F5012C01D10C3004E0022C01D1103061
:1015300000E014301AB107682F43076002E0076823
:10154000AF430760F0BD00002DE9F04786B00546C7
:101550000E460024A24600BFA1460027B08900B174
:1015600000BF2F462C8A4CF6FF700440F0880443DD
:101570002C82AC894EF6F3100440B08831890843C0
:10158000718908430443AC81AC8A4FF6FF400440A4
:10159000B0890443AC8201A8FFF7FCF91F488742D9
:1015A00002D1DDF810A001E0DDF80CA0A88900F45C
:1015B000004040B10AEBCA0000EB0A103168490054
:1015C000B0FBF1F807E00AEBCA0000EB0A10316843
:1015D0008900B0FBF1F86420B8FBF0F004012009A9
:1015E000642101FB1089A88900F4004040B1322039
:1015F00000EBC900B0FBF1F000F00700044308E085
:10160000322000EB09106421B0FBF1F000F00F0074
:1016100004432C8106B0BDE8F0870000003801408B
:1016200001468888C0F30800704700BFFEE700BF8E
:101630007047000010B56FF00400FFF71BFB0A486D
:1016400000680A49B0FBF1F00949087008460078C3
:1016500000EB4001C1EBC0104FF6FF7101EAC00082
:101660000449088010BD00000000002000127A002C
:1016700014000020160000200146114A12884A4337
:101680004FF0E0235A6100229A611A46126942F033
:1016900001021A6100BF4FF0E022106900F0010260
:1016A0001AB100F48032002AF5D04FF0E02212691E
:1016B00022F001024FF0E0231A6100229A61704784
:1016C0001600002000BF054A128802F04002002ADE
:1016D000F9D0C2B2014B1B1D1A807047003801407F
:1016E00008B500200090FFF7A5FF4FF4A060FFF7BA
:1016F00013F94FF4E13000F0BFF8FFF7ABF84820E2
:10170000FFF7D6FDFEF7C2FE41F61F4141F28730DA
:10171000FFF72EFCFFF71CF8FEF7D6FEFFF7BEF929
:1017200000213D48FFF79BFC01203C4908603C49F3
:10173000C1F89401002039490C3108604FF47A70E7
:10174000FFF79AFF002035490860364908600120FC
:101750003549C1F8A0014FF47A70FFF78DFF33A02F
:10176000FEF75AFD39A0FEF757FD00202B490C313A
:1017700008600120294908602A4908604AE00120E0
:10178000FFF704F800909DF80000002842D09DF873
:101790000000012828D0022817D0032809D00428E7
:1017A00037D101201D490C3108600020FFF75CF99A
:1017B0002FE01A48006808B9012000E0002017490E
:1017C00008600020FFF7B2F823E01648006808B967
:1017D000012000E000201349086000F043F80020D9
:1017E0001149C1F8A00114E00C48006808B90120B3
:1017F00000E00020094908600948D0F8940108B9C0
:10180000012000E0002007490860C820FFF734FFEE
:1018100000BF00BFB3E700000004004094812142F4
:101820000000234294012342008021420D0AD5BDCD
:10183000BDA253544D3332BFAAB7A2B0E520B4AE17
:10184000BFDACAB5D1E90D0A00000000D5FDB5E345
:10185000D4ADD7D340414C49454E54454B0D0A0DAC
:101860000A00000010B54FF48050FEF759FF3220F7
:10187000FFF702FF10BD000010B586B0044601213D
:1018800044F20400FFF776F84FF40070ADF814004E
:1018900003208DF8160018208DF8170005A91C48A4
:1018A000FEF7A4FE4FF48060ADF8140004208DF81C
:1018B000170005A91648FEF799FE25208DF80000AF
:1018C00003208DF801008DF8020001208DF803003F
:1018D0006846FEF7E9FF01940020ADF80800ADF876
:1018E0000A00ADF80C00ADF810000C20ADF80E00A9
:1018F00001A90848FFF728FE012240F225510548BA
:10190000FFF7FCFD01210348FFF7C2FD06B010BD43
:10191000000801400038014038190008000000208C
:10192000380000006C010008701900083800002021
:10193000680700008801000800A24A0400000000B7
:10194000000000000102030406070809000000006F
:101950000000000000000100000000000000000185
:101960000203040102030406070809020406080032
:04000005080001D519
:00000001FF
