:020000040800F2
:10000000000700202D0200086F4400087F0B000845
:100010006D440008590700083D5C0008000000001E
:10002000000000000000000000000000FB5100087C
:100030005B07000800000000714E0008BD52000878
:10004000470200084702000847020008470200086C
:1000500047020008470200085D0700084702000841
:1000600095070008CD0700080508000847020008AA
:10007000470200084702000847020008470200083C
:10008000470200084702000847020008470200082C
:1000900047020008470200084702000881080008DC
:1000A000470200084702000847020008470200080C
:1000B00047020008F95300082D54000847020008C1
:1000C00047020008470200084702000847020008EC
:1000D00047020008A15A000847020008470200082A
:1000E00047020008470200084702000847020008CC
:1000F00047020008470200084702000847020008BC
:100100004702000847020008E954000847020008B7
:10011000470200084702000871550008470200081E
:10012000470200084702000847020008470200088B
:1001300000F002F800F06BF80AA090E8000C82448E
:100140008344AAF10107DA4501D100F060F8AFF26B
:10015000090EBAE80F0013F0010F18BFFB1A43F0A5
:1001600001031847888E0000A88E00000A444FF053
:10017000000C10F8013B13F0070408BF10F8014B06
:100180001D1108BF10F8015B641E05D010F8016B4B
:10019000641E01F8016BF9D113F0080F1EBF10F8AF
:1001A000014BAD1C0C1B09D16D1E58BF01F801CBD2
:1001B000FAD505E014F8016B01F8016B6D1EF9D555
:1001C0009142D6D37047000000230024002500266A
:1001D000103A28BF78C1FBD8520728BF30C148BFAA
:1001E0000B607047642900F0B180752900F0AE8083
:1001F000782900F0E780632900F05982732900F024
:100200005E82002070471FB51FBD10B510BD00F005
:1002100071FA1146FFF7F7FF05F078FD00F08FFA4D
:1002200003B4FFF7F2FF03BC05F010FD0948804757
:1002300009480047FEE7FEE7FEE7FEE7FEE7FEE7C8
:10024000FEE7FEE7FEE7FEE704480549034A054BE3
:1002500070470000C152000831010008000300206F
:100260000007002000030020704700000FB404497D
:1002700010B503AA029800F027FA10BC5DF814FB31
:10028000600000200FB41CB5074B06AA7B446946EA
:100290000090059800F0E9F90020694600F0F8F9AF
:1002A0001CBC5DF814FB00000104000070B504469E
:1002B00085690068C10601D5302600E02026C00708
:1002C00007D070BDD4E9012130469047206A401C18
:1002D00020626D1EF6D570BD70B504468569007844
:1002E000C00707D170BDD4E9012120209047206AC2
:1002F000401C20626D1EF6D570BD70B50C460546DB
:10030000012A05D02878800600D5EA69002302E09A
:10031000012305E05B1C934202D2E05C0028F9D186
:10032000A869E618C01AA861286A184428622846F5
:10033000FFF7BCFF04E0D5E9012114F8010B904759
:10034000B442F8D32846FFF7C7FF70BD2DE9F0414E
:100350000646002410687529314616A510D0AFF363
:100360000080002802DA404213A507E031688A07BE
:1003700001D512A502E0490704D511A5012401E029
:10038000AFF3008000210A2206F1240709E0B0FB48
:10039000F2FCB0FBF2F302FB1C003030785418463C
:1003A000491C0028F3D123462A463046BDE8F041D7
:1003B00000F0FCB8000000002D0000002B00000041
:1003C0002000000070B504460D4621461068AFF3CA
:1003D00000802188090502D50F4A7A4402E00E4ABE
:1003E0007A440E32002104F1240305E000F00F06E8
:1003F0000009965D5E54491C0028F7D1207800233F
:10040000000704D5702D02D009B102231132204615
:10041000BDE8704000F0CAB8288A00002DE9F05FFE
:10042000894604464FF0000ADFF874B1FB44C0F877
:1004300020A02046E1688847002874D0252806D0EF
:10044000D4E901219047206A401C2062F1E7002690
:100450005F462046E16888472028054607DB312DA6
:1004600005D2781910F8200C08B10643F1E7B0075F
:1004700001D526F00406C4F81CA00027C4F818A073
:100480002A2D09D0284605F0DAFB38B304EB87089B
:10049000303DC8F8185019E059F8041B204604EB09
:1004A00087029161E1688847012F054618D1E0690C
:1004B000002820DA26F020061DE0D8F8180000EB0E
:1004C000800005EB40003038C8F818002046E1688D
:1004D0008847054605F0B3FB0028EED1012F0AD06E
:1004E0002E2D08D12046E16888477F1C0546022F43
:1004F00046F02006C4DBA069002803DA404246F03B
:100500000106A061F00701D026F010066C2D0BD07B
:10051000682D09D04C2D39D06A2D35D0742D35D0A9
:100520007A2D33D016E038E0E1682F462046884720
:10053000B842054609D16C2F26D04FF48060E1689F
:10054000064320468847054604E06C2F1AD04FF436
:10055000807006430DB3A5F14100192802D820355B
:1005600046F400664A462946204626604E46FFF776
:1005700039FE80B101280BD0F61D26F0070000F1EE
:10058000080956E74020E4E78020D8E70020D6E7B6
:1005900006F104094DE7284652E7206ABDE8F09FBE
:1005A000FE89000070477047704770472DE9F0479B
:1005B0000D4699469246044600F1240801688806D3
:1005C00004D5E06921F01001216000E00120A8427B
:1005D00001DD471B00E00027A1697A1902EB090041
:1005E000081AA0612078C00602D42046FFF75EFEFC
:1005F000002608E0D4E901211AF806009047206A95
:10060000401C761C20624E45F4DB2078C0060AD5DB
:100610002046FFF74BFE06E0D4E901213020904749
:10062000206A401C2062381EA7F10107F4DC07E0B5
:10063000D4E9012118F805009047206A401C206287
:10064000281EA5F10105F3DC2046FFF745FE2078C2
:10065000000602D50220BDE8F0870120FBE700007C
:1006600001694A1C02610878704700B58FB0CDE976
:1006700001310021059105497944CDE90310114666
:100680006846FFF7CBFE0FB000BD0000E5FFFFFF9F
:100690000A6802F8010B0A60704710B5436913B18C
:1006A000AFF3008001E0FFF728FE012010BD1278B3
:1006B00000F124010A7000224A700122EDE711685E
:1006C0004FF0FF32E9E70000074B70B50D467B4461
:1006D000FFF7CBFF0446284600F008F810B14FF0B2
:1006E000FF3070BD204670BD23560000007B00F037
:1006F00080007047754600F02BF8AE46050069464D
:10070000534620F00700854618B020B5FFF79CFD42
:10071000BDE820404FF000064FF000074FF0000802
:100720004FF0000B21F00701AC46ACE8C009ACE883
:10073000C009ACE8C009ACE8C0098D46704710B5E7
:100740000446AFF300802046BDE81040FFF768BDC7
:1007500000487047A0020020FEE7704710B50A204D
:1007600005F094FA0121094800F0FEF9012806D1AC
:100770000749D1F8A00138B10020C1F8A001BDE8B7
:100780001040012000F0A0B80120F6E70008014069
:100790000080214210B50A2005F078FA04210948AA
:1007A00000F0E2F930B90849D1F8940138B10020DD
:1007B000C1F89401BDE81040042000F085B8012084
:1007C000F6E70000001801400080214210B50A2021
:1007D00005F05CFA0821094800F0C6F930B908496B
:1007E000D1F8940138B10020C1F89401BDE810405F
:1007F000082000F069B80120F6E700000018014069
:100800000000234210B50A2005F040FA10210948E3
:1008100000F0AAF930B90849D1F8940138B10020A4
:10082000C1F89401BDE81040102000F04DB801203F
:10083000F6E7000000180140008021423EB5082183
:10084000002000F003F94FF48070002400908DF830
:10085000044008208DF8050001258DF806506846F3
:1008600000F048F817208DF808008DF809408DF841
:100870000A408DF80B5002A803F0FAFD3EBD0000BF
:1008800010B54FF48074204600F024F8012806D1FA
:100890000A4B0B4A0021187830B1C2F88C1120465F
:1008A000BDE8104000F010B80648C0F898110121CA
:1008B000C0F89811C2F88C111970F0E752000020AE
:1008C00000802142008022420149086070470000F8
:1008D00014040140064A014600201268044B0A40F5
:1008E00014331B680B4202D0002A00D0012070474D
:1008F0000004014030B51A4A8379016853B3136884
:100900008B431360111D0B680468A3430B600179CE
:1009100011440B68046823430B60114B08331968BA
:100920000468A14319601C1D21680568A943216062
:100930004179102905D011440A68006802430A6011
:1009400030BD1968026811431960216800680143CD
:10095000216030BD0079104402688A43026030BDD6
:10096000000401408000A0F1C0400029016802D0CD
:1009700041F0010101E0024A1140016070470000AE
:10098000FEFF0F0010B5D0E901121143D0E9032397
:100990001A4311434269114382691143C2691143E9
:1009A000026A1143426A1143826A1143C26A1143C7
:1009B000026B114302689200A2F1C042116081688B
:1009C000082907D101688900A1F1C0410A6842F0F5
:1009D00040020A60416BD1E9002342EA03128B68AE
:1009E0008C891B0243EA04431A430B8A42EA0352EE
:1009F0000B7D896942EA03620A4301688900A1F11B
:100A0000C0414A60C16AB1F5804F08D000686FF0FC
:100A100070418000A0F1C040C0F8041110BD816B8E
:100A2000D1E9002342EA03128B680C8A1B0243EAD5
:100A300004531A430B7D896942EA036200680A4342
:100A40008000A0F1C040C0F8042110BD10B58A0795
:100A500021F003040649120F21440F238C689340B0
:100A60009C438C608B68904003438B6010BD0000FA
:100A700000000140F0B5CC78002204F00F03E4063A
:100A800001D58C7823430C784FF00F0C14F0FF0F36
:100A90004FF0010E1BD005680E880EFA02F42640B6
:100AA000A64210D196000CFA06F725EA070703FACA
:100AB00006F5CE783D43282E02D0482E02D002E023
:100AC000446100E00461521C082AE5D305600A88ED
:100AD000FF2A1CD94468002202F108060EFA06F526
:100AE0000E882E40AE420ED196000CFA06F7BC439B
:100AF00003FA06F7CE783C43282E00D14561CE7824
:100B0000482E00D10561521C082AE5D34460F0BD8F
:100B1000F0B5144C002801DAE36900E06368450D84
:100B20002E0185B2C0F30157B540C0F30342032F35
:100B300005D0C6020AD503269640B34307E023F04A
:100B40007062636823F07063636002E0AB4343F05C
:100B5000706201B12A43002801DAE261F0BD6260EF
:100B6000F0BD0000000001400246002092680A42E9
:100B700000D0012070474161704701617047FEE776
:100B800008B50121442004F08DF91C20ADF80000C7
:100B900048208DF8030069460648FFF76BFF0120E7
:100BA000ADF8000028208DF8030069460248FFF7E1
:100BB00061FF08BD00180140000801402DE9F04127
:100BC0002E4C2F4F2F4D012608B1267001E02078C2
:100BD000A0B110212846FFF7C7FFB0B10821284671
:100BE000FFF7C2FF88B104212846FFF7BDFF60B1BF
:100BF00001213846FFF7B8FF012806D0102128460A
:100C0000FFF7B2FF012824D035E00A2005F03EF8B6
:100C10000020207010212846FFF7A6FF80B1082190
:100C20002846FFF7A1FF70B104212846FFF79CFF7B
:100C300058B101213846FFF797FF012807D01AE085
:100C40000120BDE8F0810220FBE70320F9E7042042
:100C5000F7E708212846FFF787FF01280BD1042179
:100C60002846FFF781FF012805D101213846FFF70B
:100C70007BFF00B926700020E3E700004800002059
:100C800000080140001801402DE9F043174F0646C7
:100C9000002438887D884543B888A0F5D0410439C0
:100CA00002D1B879012807D00021084603F0B2F933
:100CB00003F0A2FB0E4815E00020B8714FF02A099E
:100CC000A7F80A904FF02B08A7F80C80014603F014
:100CD000A1F90120B871A7F80A80A7F80C90E7E7FE
:100CE0000680641CAC42FBD3BDE8F083C801002041
:100CF0000008006C2DE9F04F4A492A232B248988EB
:100D000045F2105A4FF4305B4FF4285E4FF44875AB
:100D10004FF0F00C49F241394FF4A07745F210360C
:100D20004FF4F07280B13F484FF00108494580F818
:100D300006800780A0F802C001D0B1423ED12C2528
:100D400005814381848157E036484FF000084945CA
:100D500080F80680A0F800C0478006D0A1F5D04CEE
:100D6000BCF1040C01D0B1420CD12C25058143818A
:100D7000A1F5D0438481043B01D0B14244D1078026
:100D8000428041E0514507D1A0F808B0A0F80AE040
:100D90004FF42C5181810EE0A1F5C856633E06D078
:100DA0002221018120214181212181812CE02C21DE
:100DB0000181448183810280458025E0A1F5D04CEA
:100DC000BCF1040C09D051450BD1A0F808B0A0F833
:100DD0000AE04FF42C53838121E02C2505814481C6
:100DE00009E0A1F5C85CBCF1630C12D02223038199
:100DF0002123438120238381A1F5D043043B01D0EB
:100E0000B14201D102804780BDE8F04F002003F0DD
:100E10002DB84FF02C0CA0F808C0438184810580C8
:100E20004280E9E7C80100202DE9F04FDFF810818A
:100E3000934642460B46B8F804500C0ADFF804A16A
:100E40009189060A5289A5F513470AF10209413F23
:100E500019D0A5F5A647103F15D0A5F5AA47103F14
:100E60001CD04746A5F5C85CBE793F883F1A7F1E57
:100E7000BCF1630C27D0A5F5D04CBCF1040C3AD0E2
:100E8000012E4AD04AE0AAF800204A46A9F800609C
:100E9000C0B2A9F80000AAF800103AE0AAF80020B1
:100EA000A9F80060521CAAF80020C0B2A9F80000FE
:100EB000AAF80010A9F80040491CAAF80010D8B2FE
:100EC000A9F8000033E006B9B8B2AAF80020050A74
:100ED0004A46A9F80050C7B2A9F80070A9F8005016
:100EE000C0B2A9F80000AAF80010A9F80040D8B2D2
:100EF000A9F800000DE0012E00D1B8B2AAF8002038
:100F0000050A4A46A9F80050C0B2A9F80000AAF89C
:100F100000101480D8B2108009E0B8B20146104623
:100F200003F074FAB8F80C00194603F06FFAB8F839
:100F30000810AAF80010A9F800B0BDE8F08F000072
:100F4000C8010020FE07006C2DE9F8431F4D1F4625
:100F50008046AB88089EA3F5D040043802D1A8791A
:100F6000012807D0A2EB0800401C85B20C46DFF830
:100F7000609028E02B880846991A0024AC713A4604
:100F80002A24A3EB08036C812B27491E5B1EAF812B
:100F900089B29BB20096FFF7D7FF0120A8716F813D
:100FA000AC81BDE8F8832146404603F033F803F0F6
:100FB00023FA0020494602E00E80401C80B2A8427D
:100FC000FAD3641CA4B2BC42EDD9EAE7C801002000
:100FD0000008006C2DE9F04F01210E029FB0304651
:100FE00003F048FF01214FF4B47003F05BFF0127C9
:100FF000ADF83C704FF010088DF83F8003248DF859
:101000003E400FA9FE48FFF735FD4CF23370ADF8B6
:101010003C0018258DF83F508DF83E400FA9F94847
:10102000FFF728FD4FF68070ADF83C008DF83F507B
:101030008DF83E400FA9F448FFF71CFD41F2010076
:10104000ADF83C008DF83F508DF83E400FA9EF48B9
:10105000FFF710FD00200F21CDE918011A901B9019
:101060001C901D901090CDE91104CDE91607149045
:1010700006211590CDE90010CDE9020813900490E7
:101080003101CDE908010690059007908900CDE96E
:101090000A010C9017A80D9010A80E906846FFF753
:1010A00071FC01210620FFF75DFC322004F0EEFD0B
:1010B000002002F0B1FED64DD64C49F24139A8804D
:1010C00046F6040A45F2103B45F210574FF6FF78FA
:1010D000FF2804D3404502D0B0F5134F70D1D32080
:1010E000208002F08FFEA88002F08CFEA88002F023
:1010F00089FE08EA00204146A88002F083FEAA8803
:101100001043A88048455BD0BF20208002F07AFEC3
:10111000A88002F077FEA88002F074FEA88002F09A
:1011200071FE01EA0020A88002F06CFEAA8810433C
:10113000A880504544D0D420208002F063FEA880CF
:1011400002F060FEA88002F05DFE01EA0020A880A7
:1011500002F058FEAA881043A880584530D04FF4BA
:101160005A40208002F04EFEA8804FF45B40208061
:1011700002F048FE01EA0020A8804FF45C40208085
:1011800002F040FEAA881043A880B0F5004F7DD041
:10119000B84215D0A120208002F034FEA88002F0D1
:1011A00031FE01EA0020A88002F02CFEA988084345
:1011B000A0F5AE41A880613902D141F66310A88044
:1011C000A98895A0FFF752F8A888924DAD1C484514
:1011D0007ED1CF20208000202880C1202880302090
:1011E0002880ED2020806420288003202880122081
:1011F000288081202880E8202080852028801020D9
:1012000028807A202880CB202080392028802C201C
:101210002880002028803420288002202880F72081
:10122000208020202880EA2020800020288028801C
:10123000C02020801B202880C12020800120288001
:10124000C5202080302028802880C7202080B7201B
:10125000288036202080482028803A202080552071
:101260002880B1202080002028801A202880B620E5
:1012700020800A202880A2202880F22020800020C0
:101280002880262020800120288000E051E0E020F6
:1012900020800F2028802A202880282028800820CD
:1012A00028800E2028800820288054202880A9200B
:1012B0002880432028800A2028800F2028800020B2
:1012C0002880288028802880E1202080002000E0DD
:1012D00031E02880152028801720288007202880CA
:1012E00011202880062028802B2028805620288046
:1012F0003C20288005202880102028800F2028806E
:101300003F20288028800F2028802B20208000204C
:1013100028802880012028803F2028802A202080C3
:101320000020288028802880EF202880112020801D
:1013300084E0AF8044E7504576D11120208014200E
:1013400004F0A4FCD02020800720288042202880A0
:101350001D202880D1202080002028801A2028806D
:1013600009202880D2202080012028802220288067
:10137000C0202080102028803B202880002028804A
:101380000220288011202880C5202080032028806A
:10139000C820208000202880252028802120288027
:1013A00005202880002028800A20288065202880A9
:1013B0002520288077202880502028800F20288012
:1013C00000202880F820208001202880FE20208016
:1013D00000202880022028802020208036202080A5
:1013E000082028803A202080552028802B2020802B
:1013F000002028802880012028803F20288014E0B9
:10140000000C014000140140001801400020014080
:10141000C8010020FE07006C204C43442049443A98
:1014200025780D0A000000000EE02A202080002010
:101430002880288001202880DF202880782004F060
:1014400025FC292001F02DBC58457DD1ED202080C0
:1014500001202880FE202880EE202080DE202880A9
:1014600021202880F120208001202880DF2020807A
:1014700010202880C42020808F202880C620208033
:1014800000202880E220288028802880BF2020801B
:10149000AA202880B02020800D20288000202880CD
:1014A0000D202880002028801120288000202880FE
:1014B00019202880002028802120288000202880D2
:1014C0002D202880002028803D2028800020288092
:1014D0005D202880002028805D2028800020288032
:1014E000B120208080202880002028808B20288028
:1014F000002028809620288000202880B22020808C
:1015000000202880288002202880002028800320B6
:10151000288000202880B320208000202880288078
:10152000288028802880288028802880288028807B
:10153000288028802880288028802880288028806B
:1015400028802880288000E0FEE3288028802880EA
:10155000B42020808B20288000202880962028809E
:1015600000202880A120288000202880B52020800D
:101570000220288000202880032028800020288046
:101580000420288000202880B62020800020288089
:101590002880B72020800020288028803F202880B5
:1015A000002028805E202880002028806420288059
:1015B000002028808C20288000202880AC202880D3
:1015C00000202880DC2028800020288070202880AF
:1015D000002028809020288000202880EB20288070
:1015E00000202880DC20288000202880B82020804F
:1015F0000020288028802880288028802880288033
:101600002880BA202080242028800020288028805C
:101610002880C1202080202028800020288054207D
:10162000288000202880FF20288000202880C220D9
:1016300020800A2028800020288004202880002084
:101640002880C32020803C202880002028803A2049
:1016500028800020288039202880002028803720FA
:101660002880002028803C202880002028803620E8
:1016700028800020288032202880002028802F20E9
:101680002880002028802C202880002028802920E5
:1016900028800020288026202880002028802420E0
:1016A00028800020288024202880002028802320D3
:1016B0002880002028803C20288000202880362098
:1016C00028800020288032202880002028802F2099
:1016D0002880002028802C20288000202880292095
:1016E0002880002028802620288000202880242090
:1016F0002880002028802420288000202880232083
:10170000288000202880C42020806220288000209B
:101710002880052028800020288084202880002020
:101720002880F02028800020288018202880002091
:101730002880A420288000202880182028800020CD
:10174000288050202880002028800C20288000201D
:1017500028801720288000202880952028800020BD
:101760002880F320288000202880E6202880002080
:101770002880C52020803220288000202880442016
:10178000288000202880652028800020288076205E
:101790002880002028808820288000202880C620DB
:1017A00020802020288000202880172028800020EA
:1017B00028800120288000202880C7202080002049
:1017C0002880288028802880C82020800020288029
:1017D000288028802880C920208000202880288018
:1017E00028802880288028802880288028802880B9
:1017F000288028802880288028802880E020208059
:1018000016202880002028801C2028800020288086
:101810002120288000202880362028800020288051
:101820004620288000202880522028800020288000
:1018300064202880002028807A20288000202880AA
:101840008B20288000202880992028800020288054
:10185000A820288000202880B92028800020288007
:10186000C420288000202880CA20288000202880CA
:10187000D220288000202880D9202880002028809D
:10188000E020288000202880F32028800020288065
:10189000E120208016202880002028801C2028801D
:1018A00000202880222028800020288036202880C0
:1018B0000020288045202880002028805220288071
:1018C0000020288064202880002028807A2028801A
:1018D000002028808B2028800020288099202880C4
:1018E00000202880A820288000202880B920288077
:1018F00000202880C420288000202880CA2028803A
:1019000000202880D220288000202880D82028800D
:1019100000202880E020288000202880F3202880D4
:1019200000202880E22020800520288000202880B8
:101930000B202880002028801B2028800020288061
:1019400034202880002028804420288000202880FF
:101950004F202880002028806120288000202880B7
:101960007920288000202880882028800020288056
:101970009720288000202880A6202880002028800A
:10198000B720288000202880C220288000202880BE
:10199000C720288000202880D1202880002028808F
:1019A000D620288000202880DD2028800020288064
:1019B000F320288000202880E32020800520288034
:1019C000002028800A202880002028801C202880D1
:1019D0000020288033202880002028804420288070
:1019E0000020288050202880002028806220288025
:1019F00000202880782028800020288088202880C7
:101A0000002028809720288000202880A620288079
:101A100000202880B720288000202880C22028802D
:101A200000202880C720288000202880D1202880FE
:101A300000202880D520288000202880DD202880D4
:101A400000202880F320288000202880E4202080A7
:101A50000120288000202880012028800020288064
:101A600002202880002028802A202880002028802A
:101A70003C202880002028804B20288000202880BF
:101A80005D20288000202880742028800020288065
:101A9000842028800020288093202880002028800F
:101AA000A220288000202880B320288000202880C1
:101AB000BE20288000202880C42028800020288084
:101AC000CD20288000202880D32028800020288056
:101AD000DD20288000202880F32028800020288016
:101AE000E52020800020288028802880288002206F
:101AF00028800020288029202880002028803C2061
:101B00002880002028804B202880002028805D200D
:101B100028800020288074202880002028808420AD
:101B20002880002028809320288000202880A22060
:101B3000288000202880B320288000202880BE2014
:101B4000288000202880C420288000202880CD20E4
:101B5000288000202880D320288000202880DC20B6
:101B6000288000202880F320288000202880E6207C
:101B70002080112028800020288034202880002008
:101B80002880562028800020288076202880002069
:101B90002880772028800020288066202880002048
:101BA00028808820288000202880992028800020F4
:101BB0002880BB20288000202880992028800020B1
:101BC000288066202880002028805520288000203A
:101BD000288055202880002028804520288000204B
:101BE000288043202880002028804420288000204E
:101BF0002880E7202080322028800020288055205F
:101C000028800020288076202880002028806620D8
:101C100028800020288067202880002028806720D6
:101C20002880002028808720288000202880992074
:101C3000288000202880BB20288000202880992030
:101C400028800020288077202880002028804420B9
:101C500028800020288056202880002028802320EB
:101C600028800020288033202880002028804520DC
:101C7000288000202880E8202080002028802880DC
:101C80009920288000202880872028800020288014
:101C90008820288000202880772028800020288025
:101CA0006620288000202880882028800020288026
:101CB000AA20288000202880BB202880002028809F
:101CC00099202880002028806620288000202880F5
:101CD000552028800020288055202880002028803A
:101CE000442028800020288044202880002028804C
:101CF0005520288000202880E9202080AA202880E4
:101D000000202880288028802080AA202880CF20BA
:101D10002080002028802880288028802880288013
:101D20002880288028802880288028802880288073
:101D3000288028802880F0202080002028805020C3
:101D400028800020288000E02CE028802880F320D4
:101D5000208000202880F920208006202880102064
:101D6000288029202880002028803A2020805520A3
:101D7000288011202080642003F088FF2920208003
:101D8000352020800020288051202080FF202880BE
:101D9000532020802C2028805520208082202880DD
:101DA0002C20FCE3B8427DD14FF4704355211846F6
:101DB00002F02CFB4FF20105AA21284602F026FB77
:101DC0006E1C5221304602F021FBAF1C0821384620
:101DD00002F01CFB4FF204090121484602F016FBF9
:101DE0000D214FF4304002F011FB0D214BF20100A8
:101DF00002F00CFB0D214BF2020002F007FB4FF446
:101E0000364A3421504602F001FB34214BF2016086
:101E100002F0FCFA34214BF2026002F0F7FA4FF4C0
:101E2000314B0D21584602F0F1FA0D214BF2011011
:101E300002F0ECFA0D214BF2021002F0E7FA342125
:101E40004FF4374002F0E2FA34214BF2017002F015
:101E5000DDFA34214BF2027002F0D8FA00214FF47F
:101E6000324002F0D3FA00214BF2012002F0CEFA08
:101E700000214BF2022002F0C9FA24214FF438402D
:101E800002F0C4FA24214BF6010002F0BFFA24212B
:101E90004BF6020002F0BAFA01214FF43F4002F083
:101EA000B5FA00E0FEE30F214FF4334002F0AEFA42
:101EB0000F214BF2013002F0A9FA0F214BF2023050
:101EC00002F0A4FA34214FF4394002F09FFA342191
:101ED0004BF6011002F09AFA34214BF6021002F090
:101EE00095FA08214FF4354002F090FA08214BF2A0
:101EF000015002F08BFA08214BF2025002F086FAF0
:101F000003214FF4424002F081FA24214FF43A4079
:101F100002F07CFA24214BF6012002F077FA24210A
:101F20004BF6022002F072FA00214FF43C4002F01E
:101F30006DFA78214BF6014002F068FA00214BF669
:101F4000024002F063FA00214FF43D4002F05EFAD5
:101F500078214BF6015002F059FA00214BF602505D
:101F600002F054FA00214FF43E4002F04FFA64218F
:101F70004BF6016002F04AFA00214FF4514002F0A2
:101F800045FA33214DF2011002F040FA00214DF2E2
:101F9000021002F03BFA34214DF2031002F036FA3F
:101FA00000214DF2041002F031FA3A214DF20510F1
:101FB00002F02CFA00214DF2061002F027FA4A2115
:101FC0004DF2071002F022FA00214DF2081002F043
:101FD0001DFA5C214DF2091002F018FA00214DF2B1
:101FE0000A1002F013FA81214DF20B1002F00EFAE2
:101FF00000214DF20C1002F009FAA6214DF20D104D
:1020000002F004FA00214DF20E1002F0FFF9E52172
:102010004DF20F1002F0FAF901214DF2101002F00A
:10202000F5F913214DF2111002F0F0F901214DF2F2
:10203000121002F0EBF954214DF2131002F0E6F900
:1020400001214DF2141002F0E1F982214DF2151038
:1020500002F0DCF901214DF2161002F0D7F9CA2185
:102060004DF2171002F0D2F902214DF2181002F0D1
:10207000CDF900214DF2191002F0C8F902214DF2FC
:102080001A1002F0C3F901214DF21B1002F0BEF943
:1020900002214DF21C1002F0B9F934214DF21D104D
:1020A00002F0B4F902214DF21E1002F0AFF96721DF
:1020B0004DF21F1002F0AAF902214DF2201002F099
:1020C000A5F984214DF2211002F0A0F902214DF270
:1020D000221002F09BF9A4214DF2231002F096F990
:1020E00002214DF2241002F091F9B7214DF2251092
:1020F00002F08CF902214DF2261002F087F9CF216F
:102100004DF2271002F082F902214DF2281002F060
:102110007DF9DE214DF2291002F078F902214DF20D
:102120002A1002F073F9F2214DF22B1002F06EF931
:1021300002214DF22C1002F069F9FE214DF22D1012
:1021400002F064F903214DF22E1002F05FF9102124
:102150004DF22F1002F05AF903214DF2301002F027
:1021600055F933214DF2311002F050F903214DF2AF
:10217000321002F04BF96D214DF2331002F046F9A6
:1021800000214FF4524002F041F933214DF2012079
:1021900002F03CF900214DF2022002F037F934211F
:1021A0004DF2032002F032F900214DF2042002F03A
:1021B0002DF93A214DF2052002F028F900214DF2C7
:1021C000062002F023F94A214DF2072002F01EF901
:1021D00000214DF2082002F019F95C214DF209208E
:1021E00002F014F900214DF20A2002F00FF98121CA
:1021F0004DF20B2002F00AF900214DF20C2002F002
:1022000005F9A6214DF20D2002F000F900214DF252
:102210000E2002F0FBF8E5214DF20F2002F0F6F857
:1022200001214DF2102002F0F1F813214DF211209E
:1022300002F0ECF801214DF2122002F0E7F85421EF
:102240004DF2132002F0E2F801214DF2142002F0C9
:10225000DDF882214DF2152002F0D8F801214DF26F
:10226000162002F0D3F8CA214DF2172002F0CEF862
:1022700002214DF2182002F0C9F800214DF2192078
:1022800002F0C4F802214DF21A2002F0BFF8012139
:102290004DF21B2002F0BAF802214DF21C2002F090
:1022A000B5F834214DF21D2002F0B0F802214DF2B4
:1022B0001E2002F0ABF867214DF21F2002F0A6F8B5
:1022C00002214DF2202002F0A1F884214DF22120BC
:1022D00002F09CF802214DF2222002F097F8A4218E
:1022E0004DF2232002F092F802214DF2242002F058
:1022F0008DF8B7214DF2252002F088F802214DF229
:10230000262002F083F8CF214DF2272002F07EF83C
:1023100002214DF2282002F079F8DE214DF2292029
:1023200002F074F802214DF22A2002F06FF8F22137
:102330004DF22B2002F06AF802214DF22C2002F01F
:1023400065F8FE214DF22D2002F060F803214DF2D8
:102350002E2002F05BF810214DF22F2002F056F8EB
:1023600003214DF2302002F051F833214DF231209B
:1023700002F04CF803214DF2322002F047F86D21B3
:102380004DF2332002F042F800214FF4534002F0A6
:102390003DF833214DF2013002F038F800214DF2C2
:1023A000023002F033F834214DF2033002F02EF8FF
:1023B00000214DF2043002F029F83A214DF20530A7
:1023C00002F024F800214DF2063002F01FF84A21F5
:1023D0004DF2073002F01AF800214DF2083002F0F9
:1023E00015F85C214DF2093002F010F800214DF291
:1023F0000A3002F00BF881214DF20B3002F006F8A2
:1024000000214DF20C3002F001F8A6214DF20D3002
:1024100001F0FCFF00214DF20E3001F0F7FFE52145
:102420004DF20F3001F0F2FF01214DF2103001F0BA
:10243000EDFF13214DF2113001F0E8FF01214DF2C3
:10244000123001F0E3FF54214DF2133001F0DEFFB2
:1024500001214DF2143001F0D9FF82214DF21530E7
:1024600001F0D4FF01214DF2163001F0CFFFCA2157
:102470004DF2173001F0CAFF02214DF2183001F081
:10248000C5FF00214DF2193001F0C0FF02214DF2CD
:102490001A3001F0BBFF01214DF21B3001F0B6FFF5
:1024A00002214DF21C3001F0B1FF34214DF21D30FC
:1024B00001F0ACFF02214DF21E3001F0A7FF6721B1
:1024C0004DF21F3001F0A2FF02214DF2203001F049
:1024D0009DFF84214DF2213001F098FF02214DF241
:1024E000223001F093FFA4214DF2233001F08EFF42
:1024F00002214DF2243001F089FFB7214DF2253041
:1025000001F084FF02214DF2263001F07FFFCF2140
:102510004DF2273001F07AFF02214DF2283001F010
:1025200075FFDE214DF2293001F070FF02214DF2DE
:102530002A3001F06BFFF2214DF22B3001F066FFE3
:1025400002214DF22C3001F061FFFE214DF22D30C1
:1025500001F05CFF03214DF22E3001F057FF1021F6
:102560004DF22F3001F052FF03214DF2303001F0D7
:102570004DFF33214DF2313001F048FF03214DF280
:10258000323001F043FF6D214DF2333001F03EFF58
:1025900000214FF4544001F039FF332100E080E383
:1025A0004DF2014001F032FF00214DF2024001F0F6
:1025B0002DFF34214DF2034001F028FF00214DF2A0
:1025C000044001F023FF3A214DF2054001F01EFFC7
:1025D00000214DF2064001F019FF4A214DF207405B
:1025E00001F014FF00214DF2084001F00FFF5C21C3
:1025F0004DF2094001F00AFF00214DF20A4001F0BE
:1026000005FF81214DF20B4001F000FF00214DF24A
:102610000C4001F0FBFEA6214DF20D4001F0F6FE4C
:1026200000214DF20E4001F0F1FEE5214DF20F4088
:1026300001F0ECFE01214DF2104001F0E7FE132104
:102640004DF2114001F0E2FE01214DF2124001F085
:10265000DDFE54214DF2134001F0D8FE01214DF270
:10266000144001F0D3FE82214DF2154001F0CEFE60
:1026700001214DF2164001F0C9FECA214DF217406A
:1026800001F0C4FE02214DF2184001F0BFFE00210E
:102690004DF2194001F0BAFE02214DF21A4001F04C
:1026A000B5FE00E0FFE201214DF21B4001F0AEFE5D
:1026B00002214DF21C4001F0A9FE34214DF21D40D3
:1026C00001F0A4FE02214DF21E4001F09FFE6721A1
:1026D0004DF21F4001F09AFE02214DF2204001F020
:1026E00095FE84214DF2214001F090FE02214DF231
:1026F000224001F08BFEA4214DF2234001F086FE22
:1027000002214DF2244001F081FEB7214DF2254017
:1027100001F07CFE02214DF2264001F077FECF2130
:102720004DF2274001F072FE02214DF2284001F0E7
:102730006DFEDE214DF2294001F068FE02214DF2CE
:102740002A4001F063FEF2214DF22B4001F05EFEC3
:1027500002214DF22C4001F059FEFE214DF22D4098
:1027600001F054FE03214DF22E4001F04FFE1021E6
:102770004DF22F4001F04AFE03214DF2304001F0AE
:1027800045FE33214DF2314001F040FE03214DF270
:10279000324001F03BFE6D214DF2334001F036FE38
:1027A00000214FF4554001F031FE33214DF201502C
:1027B00001F02CFE00214DF2025001F027FE3421E1
:1027C0004DF2035001F022FE00214DF2045001F0C1
:1027D0001DFE3A214DF2055001F018FE00214DF288
:1027E000065001F013FE4A214DF2075001F00EFE93
:1027F00000214DF2085001F009FE5C214DF2095014
:1028000001F004FE00214DF20A5001F0FFFD81218C
:102810004DF20B5001F0FAFD00214DF20C5001F089
:10282000F5FDA6214DF20D5001F0F0FD00214DF215
:102830000E5001F0EBFDE5214DF20F5001F0E6FDE9
:1028400001214DF2105001F0E1FD13214DF2115024
:1028500001F0DCFD01214DF2125001F0D7FD5421B1
:102860004DF2135001F0D2FD01214DF2145001F050
:10287000CDFD82214DF2155001F0C8FD01214DF230
:10288000165001F0C3FDCA214DF2175001F0BEFDF4
:1028900002214DF2185001F0B9FD00214DF21950FE
:1028A00001F0B4FD02214DF21A5001F0AFFD0121FB
:1028B0004DF21B5001F0AAFD02214DF21C5001F017
:1028C000A5FD34214DF21D5001F0A0FD02214DF275
:1028D0001E5001F09BFD67214DF21F5001F096FD47
:1028E00002214DF2205001F091FD84214DF2215042
:1028F00001F08CFD02214DF2225001F087FDA42150
:102900004DF2235001F082FD02214DF2245001F0DE
:102910007DFDB7214DF2255001F078FD02214DF2E9
:10292000265001F073FDCF214DF2275001F06EFDCE
:1029300002214DF2285001F069FDDE214DF22950AF
:1029400001F064FD02214DF22A5001F05FFDF221F9
:102950004DF22B5001F05AFD02214DF22C5001F0A6
:1029600055FDFE214DF22D5001F050FD03214DF299
:102970002E5001F04BFD10214DF22F5001F046FD7D
:1029800003214DF2305001F041FD33214DF2315021
:1029900001F03CFD03214DF2325001F037FD6D2175
:1029A0004DF2335001F032FD00214FF4564001F05A
:1029B0002DFD33214DF2016001F028FD00214DF283
:1029C000026001F023FD34214DF2036001F01EFD91
:1029D00000214DF2046001F019FD3A214DF205602D
:1029E00001F014FD00214DF2066001F00FFD4A21B7
:1029F0004DF2076001F00AFD00214DF2086001F080
:102A000005FD5C214DF2096001F000FD00214DF251
:102A10000A6001F0FBFC81214DF20B6001F0F6FC35
:102A200000214DF20C6001F0F1FCA6214DF20D6089
:102A300001F0ECFC00214DF20E6001F0E7FCE52115
:102A40004DF20F6001F0E2FC01214DF2106001F047
:102A5000DDFC13214DF2116001F0D8FC01214DF293
:102A6000126001F0D3FC54214DF2136001F0CEFC52
:102A700001214DF2146001F0C9FC82214DF2156074
:102A800001F0C4FC01214DF2166001F0BFFCCA2127
:102A90004DF2176001F0BAFC02214DF2186001F00E
:102AA000B5FC00214DF2196001F0B0FC02214DF29D
:102AB0001A6001F0ABFC01214DF21B6001F0A6FC95
:102AC00002214DF21C6001F0A1FC34214DF21D6089
:102AD00001F09CFC02214DF21E6001F097FC672181
:102AE0004DF21F6001F092FC02214DF2206001F0D6
:102AF0008DFC84214DF2216001F088FC02214DF211
:102B0000226001F083FCA4214DF2236001F07EFCE1
:102B100002214DF2246001F079FCB7214DF22560CD
:102B200001F074FC02214DF2266001F06FFCCF2110
:102B30004DF2276001F06AFC02214DF2286001F09D
:102B400065FCDE214DF2296001F060FC02214DF2AE
:102B50002A6001F05BFCF2214DF22B6001F056FC83
:102B600002214DF22C6001F051FCFE214DF22D604E
:102B700001F04CFC03214DF22E6001F047FC1021C6
:102B80004DF22F6001F042FC03214DF2306001F064
:102B90003DFC33214DF2316001F038FC03214DF250
:102BA000326001F033FC6D214DF2336001F02EFCF8
:102BB0005521184601F02AFCAA21284601F026FCDE
:102BC0005221304601F022FC0821384601F01EFC5B
:102BD0000021484601F01AFCCC21584601F016FCB1
:102BE00000214BF2011001F011FC0521504601F0CB
:102BF0000DFC70214FF4374001F008FC70214BF2BE
:102C0000017001F003FC01214FF4384001F0FEFB9C
:102C100003214BF6010001F0F9FB03214BF6020002
:102C200001F0F4FB03214BF6030001F0EFFB02215E
:102C30004FF43C4001F0EAFB00214BF6014001F06B
:102C4000E5FB00214BF6024001F0E0FBD0214FF400
:102C5000494001F0DBFB02214CF6011001F0D6FBEC
:102C600050214CF6021001F0D1FB50214CF603101C
:102C700001F0CCFB50214CF6041001F0C7FB002101
:102C80004FF4545001F0C2FB55214FF4685001F04D
:102C9000BDFB4FF488502080782003F011F84FF4EA
:102CA00024502080FEE3A0F513414FF4E06940F288
:102CB000022A4FF4274B25392ED0A0F5134140F2BC
:102CC000077728397ED0A0F513414FF4887B20394F
:102CD00079D0A0F51341313976D0A0F5A841083953
:102CE00073D0A0F5A8514FF4407B05396ED0A0F504
:102CF000354105396BD0A0F54541053968D0A0F5BF
:102D00008A4131397ED0A0F58A4135397BD0A0F592
:102D1000C851633978D0C5E747F6F001E52001F0E6
:102D200075FB3146012001F071FB4946022001F09C
:102D30006DFB41F23001032001F068FB002104200B
:102D400001F064FB5146082001F060FB00210920DE
:102D500001F05CFB00210A2001F058FB00210C204F
:102D600001F054FB00210D2001F050FB00210F2049
:102D700001F04CFB0021102001F048FB072111203D
:102D800001F044FB0021122001F040FB0021132040
:102D900001F03CFB0021072001F038FB41F290617B
:102DA000102001F033FB40F22721112001F02EFB0F
:102DB0009D21122001F02AFB4FF4C851132001F08D
:102DC00025FB06E080E03CE1E1E1B7E253E3FDE30F
:102DD000FDE32521292001F019FB0D212B2001F015
:102DE00015FB0721302001F011FB40F203313120A7
:102DF00001F00CFB0321322001F008FB40F2062118
:102E0000352002E0FEE3FEE3FEE301F0FFFA0821D5
:102E1000362001F0FBFA40F20641372001F0F6FAC5
:102E20004FF44171382001F0F1FA0721392001F007
:102E3000EDFA40F202613C2001F0E8FA08213D2061
:102E400001F0E4FA0021502001F0E0FAEF215120D6
:102E500001F0DCFA0021522001F0D8FA40F23F11D3
:102E6000532001F0D3FA5946602001F0CFFA012136
:102E7000612001F0CBFA00216A2001F0C7FA00219D
:102E8000802001F0C3FA0021812001F0BFFA002167
:102E9000822001F0BBFA0021832001F0B7FA002163
:102EA000842001F0B3FA0021852001F0AFFA10214F
:102EB000902001F0ABFA4FF4C061922001F0A6FA25
:102EC00040F233110720FDE341F28F01EC2001F0C5
:102ED0009DFA41F23421EF2001F098FA31460120A9
:102EE00001F094FA4946022001F090FA41F23001D3
:102EF000032001F08BFA0021042001F087FA5146EB
:102F0000082001F083FA0021092001F07FFA002156
:102F10000A2001F07BFA01210C2001F077FA002150
:102F20000D2001F073FA00210F2001F06FFA00214B
:102F3000102001F06BFA0721112001F067FA00213F
:102F4000122001F063FA0021132001F05FFA012141
:102F5000072001F05BFA322002F098FE41F2904126
:102F6000102001F053FA40F22721112001F04EFA0F
:102F7000322002F08BFE8A21122001F047FA322023
:102F800002F084FE4FF4D051132001F03FFA0621E5
:102F9000292001F03BFA0D212B2001F037FA3220D5
:102FA00002F074FE0021202001F030FA00212120DF
:102FB00001F02CFA322002F069FE0021302001F0ED
:102FC00025FA40F20461312001F020FA40F2053187
:102FD000322001F01BFA0021352001F017FA40F6EB
:102FE0000941362001F012FA4FF40171372001F047
:102FF0000DFA40F20131382001F008FA3946392043
:1030000001F004FA00213C2001F000FA40F60A2108
:103010003D2001F0FBF9322002F038FE0021502063
:1030200001F0F4F9EF21512001F0F0F900215220D4
:1030300001F0ECF940F23F11532001F0E7F9594655
:1030400051E10021084601F0E1F93146012001F08B
:10305000DDF94946022001F0D9F941F2300103209F
:1030600001F0D4F90021042001F0D0F951460820E4
:1030700001F0CCF90021092001F0C8F900210A2053
:1030800001F0C4F901210C2001F0C0F900210D204C
:1030900001F0BCF900210F2001F0B8F9322002F054
:1030A000F5FD40F20111072001F0B0F9322002F0E5
:1030B000EDFD4FF48651102001F0A8F907211120F1
:1030C00001F0A4F95B465946122001F09FF94FF434
:1030D0003061132001F09AF90021292001F096F9BE
:1030E00044F210012B2001F091F90021502001F051
:1030F0008DF9EF21512001F089F90021522001F0D2
:1031000085F940F23F11532001F080F94FF41C5132
:10311000602001F07BF90121612001F077F90021A5
:103120006A2001F073F90021802001F06FF900217D
:10313000812001F06BF90021822001F067F9002164
:10314000832001F063F90021842001F05FF9002160
:10315000852001F05BF91021902001F057F9002142
:10316000922001F053F90121932001F04FF9194603
:10317000952001F04BF90021972001F047F900213B
:10318000982001F043F940F27311072086E341F2E1
:103190001401E72001F03AF93146012001F036F937
:1031A0004FF40071022001F031F941F2380103209F
:1031B00001F02CF95146082001F028F900210920DE
:1031C00001F024F900210A2001F020F900210C204F
:1031D00001F01CF900210D2001F018F900210F2049
:1031E00001F014F90021102001F010F9072111203D
:1031F00001F00CF90021122001F008F90021132040
:1032000001F004F9C82002F041FD41F29061102064
:1032100001F0FCF840F22721112001F0F7F83220EC
:1032200002F034FD0C21122001F0F0F8322002F0FF
:103230002DFD4FF40061132001F0E8F81121292041
:1032400001F0E4F80B212B2001F0E0F8322002F02D
:103250001DFD0021202001F0D9F840F23F1319464E
:10326000212001F0D3F80021302001F0CFF84FF4F5
:1032700083742146312001F0C9F80021322001F089
:10328000C5F84FF40171352001F0C0F841F20A6130
:10329000362001F0BBF83946372001F0B7F8214657
:1032A000382001F0B3F83946392001F0AFF840F288
:1032B00002413C2001F0AAF840F60F413D2001F008
:1032C000A5F80021502001F0A1F8EF21512001F0D4
:1032D0009DF80021522001F099F81946532001F081
:1032E00095F84FF41C51602001F090F80121612005
:1032F00001F08CF800216A2001F088F8002180207C
:1033000001F084F80021812001F080F80021822062
:1033100001F07CF80021832001F078F8002184205E
:1033200001F074F80021852001F070F81021902040
:1033300001F06CF84FF4C0619220FDE331460120AA
:1033400001F064F84946022001F060F841F23001D2
:10335000032001F05BF80021042001F057F840F24F
:103360000721082001F052F80021092001F04EF851
:1033700000210A2001F04AF800210C2001F046F853
:1033800000210D2001F042F800210F2001F03EF84D
:10339000142002F07BFC41F2B061102001F036F8FD
:1033A0000121112001F032F80121172001F02EF83F
:1033B0004FF49C71122001F029F84FF400611320A2
:1033C00001F024F80921292001F020F809212A2000
:1033D00001F01CF80021A42001F018F80021502071
:1033E00001F014F8EF21512001F010F800215220D3
:1033F00001F00CF840F23F11532001F007F84FF4B0
:103400001C51602001F002F80121612000F0FEFF54
:1034100000216A2000F0FAFF0021802000F0F6FF72
:103420000021812000F0F2FF0021822000F0EEFF59
:103430000021832000F0EAFF0021842000F0E6FF55
:103440000021852000F0E2FF1321902000F0DEFF34
:103450000021922000F0DAFF0321932000F0D6FF34
:103460005946952000F0D2FF40F27311072000F07A
:10347000CDFF322011E10021072000F0C7FF3220EC
:1034800002F004FC4FF48E71122000F0BFFF012106
:10349000A42000F0BBFF0F21082000F0B7FF082197
:1034A0000A2000E07BE300F0B1FF08210D2000F0CE
:1034B000ADFF3946302000F0A9FF0721312000F090
:1034C000A5FF40F20361322000F0A0FF4C464946C0
:1034D000332000F09BFF5146342000F097FF02217B
:1034E000352000F093FF41F60F71362000F08EFF7B
:1034F0003946372000F08AFF0021382000F086FF8F
:103500000021392000F082FF39463A2000F07EFF8A
:1035100000213B2000F07AFF07213C2000F076FFDD
:1035200000213D2000F072FF322002F0AFFB0121AC
:10353000072000F06BFF0121172000F067FF322009
:1035400002F0A4FB4FF4BD51102000F05FFF40F2E9
:103550001721112000F05AFF4FF48F71122000F054
:1035600055FF4FF47061132000F050FF00212A2016
:1035700000F04CFF0A21292000F048FF4FF49F7112
:10358000122000F043FF0021502000F03FFFEF2108
:10359000512000F03BFF0021522000F037FF40F2A5
:1035A0003F11532000F032FF4FF41C51602000F017
:1035B0002DFF0121612000F029FF00216A2000F089
:1035C00025FF0021802000F021FF01E068E066E196
:1035D0000021812000F01AFF0021822000F016FF58
:1035E0000021832000F012FF0021842000F00EFF54
:1035F0000021852000F00AFF1321902000F006FF33
:10360000594602E015E2CBE272E3922000F0FEFEA2
:103610000521932000F0FAFE0021952000F0F6FE2F
:103620000021972000F0F2FE0021982000F0EEFE2D
:103630003146012000F0EAFE2146022000F0E6FEBD
:1036400041F23801032000F0E1FE0021042000F0E7
:10365000DDFE00210C2000F0D9FE00210F2000F03B
:10366000D5FE0021202000F0D1FE0021212000F015
:10367000CDFE2121072000F0C9FE142002F006FB38
:103680006121072000F0C2FE142002F0FFFA40F290
:103690007311072000F0BAFE142002F0F7FAA1E33C
:1036A0000021084600F0B2FE0021084600F0AEFE00
:1036B0000021084600F0AAFE0021084600F0A6FE00
:1036C000012100E0E6E0A42000F0A0FE142002F0BA
:1036D000DDFA4FF41C542146602000F097FE554659
:1036E0005146082000F092FE4FF40571302000F0A2
:1036F0008DFE43F21571312000F088FE40F2046126
:10370000322000F083FE40F61661332000F07EFE8A
:1037100042F21121342000F079FE4FF4A8513520F7
:1037200000F074FE48F20751362000F06FFE41F2BF
:103730000741372000F06AFE41F20341382000F0D3
:1037400065FE2021392000F061FE1A21902000F052
:103750005DFE0021102000F059FE0721112000F02D
:1037600055FE0021122000F051FE0021132000F030
:103770004DFE142002F08AFA4FF4E661102000F0AA
:1037800045FE40F23711112000F040FE142002F0F7
:103790007DFA4FF4DC71122000F038FE142002F0A4
:1037A00075FA4FF47061132000F030FE80212A205A
:1037B00000F02CFE4821292000F028FE142002F001
:1037C00065FA3146012000F021FE4946022000F052
:1037D0001DFE41F23801032000F018FE29460820A2
:1037E00000F014FE00210A2000F010FE00210C2041
:1037F00000F00CFE00210D2000F008FE30210E200C
:1038000000F004FE0021502000F000FEEF215120C6
:1038100000F0FCFD0021522000F0F8FD40F23F11C5
:10382000532000F0F3FD2146602000F0EFFD012160
:10383000612000F0EBFD00216A2000F0E7FD11217E
:10384000902000F0E3FD4FF4C061922000F0DEFD17
:1038500040F20241932000F0D9FD0221942000F0B3
:10386000D5FD142002F012FA0121072000F0CEFD50
:10387000142002F00BFA6121072000F0C7FD40F28E
:103880007311072000F0C2FD0021202000F0BEFDD2
:103890000021212000F0BAFD222100207DE100213D
:1038A000084600F0B3FD0021084600F0AFFD1420EB
:1038B00002F0ECF90021084600F0A8FD00210846BE
:1038C00000F0A4FD0021084600F0A0FD00210846FC
:1038D00000F09CFD0121A42000F098FD142002F0CE
:1038E000D5F94FF41C51602000F090FD40F6060120
:1038F000082000F08BFD40F203731946302000F0E1
:1039000085FD0121312000F081FD0421322000F0ED
:103910007DFD4FF48171332000F078FD5C465946FF
:10392000342000F073FD40F20311352000F06EFDED
:103930001F21362000F06AFD1946372000F066FD91
:103940000121382000F062FD0421392000F05EFDE5
:103950001521902000F05AFD4FF48261102000F0F4
:1039600055FD40F24721112000F050FD4FF4DE716B
:10397000122000F04BFD4FF46061132000F046FD73
:10398000782002F083F93146012000F03FFD4FF42A
:103990000071022000F03AFD41F23001032000F0F6
:1039A00035FD08210A2000F031FD00210C2000F037
:1039B0002DFD20210E2000F029FD00210F2000F018
:1039C00025FD0021202000F021FD0021212000F014
:1039D0001DFD3D212A2000F019FD142002F056F9AA
:1039E0002D21292000F012FD0021502000F00EFDB5
:1039F0004DF2EF01512000F009FD0021522000F0AE
:103A000005FD40F23F11532000F000FD0021612030
:103A100000F0FCFC00216A2000F0F8FC2146922016
:103A200000F0F4FC0521932000F0F0FC3146FFF794
:103A3000ACBB0121002000F0E9FC0A2002F026F9CD
:103A400041F22861102000F0E1FC0E21122000F06C
:103A5000DDFC40F63921132000F0D8FC0A2002F0EA
:103A600015F94021112000F0D1FC5021152000F063
:103A7000CDFC0A2002F00AF91E21122000F0C6FC3B
:103A80000A2002F003F94FF4B151102000F0BEFCFF
:103A900042F63921132000F0B9FC0A2002F0F6F8B2
:103AA0003146012000F0B2FC5946022000F0AEFC85
:103AB00041F23801032000F0A9FC5146082000F033
:103AC000A5FC08210A2000F0A1FC0021302000F014
:103AD0009DFC40F20241312000F098FC4FF48371CC
:103AE000322000F093FC40F20351332000F08EFCB2
:103AF0004FF48271342000F089FC40F2013135200E
:103B000000F084FC3946362000F080FC40F205319C
:103B1000372000F07BFC4FF40271382000F076FC77
:103B200040F60B71392000F071FC0221412000F0B9
:103B30006DFC4FF41C5100E0D5E0602000F066FC05
:103B40000121612000F062FC4FF40471902000F02C
:103B50005DFC4FF48571922000F058FC0421932005
:103B600000F054FC3146A02000F050FC0121072059
:103B700000F04CFC2121072000F048FC2321072005
:103B800000F044FC3321072000F040FC40F23311E8
:103B9000072000F03BFC0021A02000F037FC21E1D1
:103BA0003021152000F032FC10219A2000F02EFC6C
:103BB0002021112000F02AFC43F22841102000F0BF
:103BC00025FC0221122000F021FC41F238011320D3
:103BD00000F01CFC282002F059F81221084600F0E1
:103BE00015FC282002F052F843F22041102000F08A
:103BF0000DFC43F23801132000F008FC462002F0CF
:103C000045F80021302000F001FC40F20241312053
:103C100000F0FCFB40F20731322000F0F7FB4FF4DC
:103C20004171332000F0F2FB0421342000F0EEFB60
:103C300040F20141352000F0E9FB3946362000F022
:103C4000E5FB40F20531372000F0E0FB4FF4C263A2
:103C50001946382000F0DAFB1946392000F0D6FB6F
:103C60003146012000F0D2FB5946022000F0CEFB85
:103C700041F23001032000F0C9FB40F608010820A2
:103C800000F0C4FB08210A2000F0C0FB4FF41C51D7
:103C9000602000F0BBFB0121612000F0B7FB4FF476
:103CA0009F71902000F0B2FB3146922000F0AEFBF5
:103CB0003146932000F0AAFB4FF44051A02000F0C1
:103CC000A5FB1021A32000F0A1FB0121072000F09B
:103CD0009DFB2121072000F099FB2321072000F004
:103CE00095FB3321072000F091FB40F233119EE653
:103CF000E22020801D2028800220288004202880A7
:103D0000642001F0DDFFE0202080012028800A20CF
:103D100001F0BCFFE0202080032028800C2001F06F
:103D2000B5FF012020800A2001F0B0FFE6202080AE
:103D30002F202880FF2028802880B020208020206D
:103D40002880002028800320288040F21F3028800F
:103D50000120288040F2DF10288000202880B42035
:103D600020800420288040F21F40288000202880E6
:103D70002E20288000202880288028802880B620B7
:103D80002080022028804FF40370288000202880A3
:103D90001720288015202880002028802880F020E7
:103DA00020800320288029202080D020208000200F
:103DB0002880BE20208005202880FE202880012029
:103DC00028800020288028802880B8202080032098
:103DD000288001202880BA202080012028806420AB
:103DE00000F026F80020FCF785FF05490120C1F806
:103DF00080014046FCF748FF1FB0BDE8F08F00008F
:103E000000802142034808B50088ADF80000BDF8E5
:103E1000000008BD0008006C044910B508800520AA
:103E200001F04EFFBDE81040FFF7ECBFFE07006C4D
:103E30000C4A10B5BE211180941C0521218003F08D
:103E400008FA4FF06632084B03F016FA03F0D4F983
:103E5000208001202080FF202080002020802080E2
:103E600010BD0000FE07006C66660440F0B5674EAA
:103E700000233146B279898846F6040741F6631477
:103E8000012A01D02AB11DE0B9421BD0A14202D1C2
:103E900018E0A14216D1082814D2DFE800F0040689
:103EA000080A0C0E101206200CE007200AE004207D
:103EB00008E0052006E0012004E0002002E00320E5
:103EC00000E00220A1F5134C45F2103245F21055E6
:103ED000BCF1410C07D0B94205D0914203D0A942B0
:103EE00001D0A14275D1082812D2DFE800F01104F8
:103EF00006080A0C0E1080230AE0402308E0C023C5
:103F000006E0202304E0602302E0A02300E0E02399
:103F1000A94202D14FF4585000E03620914205D01A
:103F2000A94203D0A14201D043F00803B94201D114
:103F300043F00203194600F069FAB288A2420AD09F
:103F400098063088718802D5884202D303E08842FF
:103F500001D9318070802E48811CAA42728902806A
:103F600021D100230B80531C038000230B80931C62
:103F7000038033885B1E1C0A0C80D21C0280DAB2DC
:103F80000A80B289028000230B80531C0380002327
:103F90000B80931C038073885B1E1C0A0C80D21C50
:103FA0000280D8B212E000220A800A803288521EB3
:103FB000130A0B80D2B20A80B289028000200880E6
:103FC00008807088401E020A0A80C0B20880F0BDD6
:103FD000FFE7082812D2DFE800F0040608110A0CF7
:103FE0000E1030230AE0102308E0202306E03823D7
:103FF00004E0282302E0182300E00823BDE8F04095
:10400000032043F4805100F001BA0000C8010020F1
:10401000FE07006C2DE9F04F4E4F0B463A46BD8827
:104020000C0ADFF834B191895289A5F513464FEA9D
:10403000102C0BF1020A413E1DD0A5F5A646103EFC
:1040400019D03E46BE4696F806903688A5F5D0476C
:10405000A6EB0008A8F10108043F17D0A5F5C85742
:10406000633F28D0A5F5AA477646103F51D0B9F155
:10407000010F63D064E0ABF800205246AAF800C0FC
:10408000C0B2AAF80000ABF800100FE0B9F1010FC0
:1040900001D11FFA88F0ABF80020050A5246AAF8B1
:1040A0000050C0B2AAF80000ABF800101480D8B2DB
:1040B0001080BDE8F08FB9F1000F1BD0ABF80020E5
:1040C0005246AAF800C0C0B2AAF80000761E300A14
:1040D000AAF80000F0B21080ABF80010114614806E
:1040E000D8B21080BEF80200401E020A0A80C0B298
:1040F0000880DEE71FFA88F0ABF800200026524661
:10410000AAF80060AAF80060060AAAF80060C0B227
:10411000E1E7ABF80020AAF800C0521CABF8002081
:10412000C0B2AAF80000ABF80010AAF80040491C81
:10413000ABF80010D8B2AAF80000BAE71FFA88F06E
:104140000146104600F062F9B089BDE8F04F19460B
:1041500000F05CB9C8010020FE07006C2DE9FC4F9F
:10416000044691464844401E86B2C818401E83B299
:10417000009004EB0900401EC0F3072EDFF850C189
:1041800000980D46C0F3072B6046BCF804204FEAA8
:10419000112881894089A2F513474FEA142A413F2B
:1041A00010D0A2F5A647103F0CD0A2F5D047043F8F
:1041B00008D09CF8067041F6631C0197012F13D1BB
:1041C000624511D1434F3880B81CA0F800A0E2B27C
:1041D0000280A0F800E0F2B202803980A0F80080EE
:1041E000E9B2018059461CE0394F62453F881DD134
:1041F000A7EB0902121B374C009B92B29BB22080A6
:10420000160AA01C0680D6B206804A44521E160A20
:104210000680D2B202802180A0F80080E9B201803D
:10422000190A0180D9B20180BDE8FC8FA2F5A04C2B
:10423000BCF5A26C1FD0019801283FD0B0462146A2
:104240002E4650204FF0510A4FF05209532700F0EC
:10425000DDF84146504600F0D9F83146484600F0B6
:10426000D5F81946384600F0D1F829462046BDE871
:10427000FC4FFFF7CFBE174A1080971CA7F800A08D
:1042800000F1010CA2F800C0E4B23C80841C148050
:10429000A7F800E0C01C1080F0B238801180A7F8A9
:1042A0000080481C1080E8B23880881C1080A7F875
:1042B00000B0C91C1180D8B23880B5E7B81B401EC9
:1042C00086B2381B9846401E294683B2B9E70000E3
:1042D000C8010020FE07006C2DE9F84F82461F46FA
:1042E0000C468B46580700D0012000EBD700790818
:1042F0004843203AC0B202F0FF090026009041E096
:104300000C2F10D0102F12D0182F3ED1204909EBBE
:10431000C90001EB80004FF00008855D28060AD532
:104320001C4802880BE009EB49001B49F1E71B49D7
:1043300001EB0910EFE70A9828B916484288214690
:104340005046FCF771FD6806050E1548641CA4B2C2
:104350004088A04219D9A4EB0B00B84209D10AF158
:1043600001001FFA80FA0E485C46018851450CD9BD
:1043700006E008F1010000F0FF08B8F1080FCDD306
:10438000761CF6B200988642BAD3BDE8F88F0000DA
:10439000D87E00084A00002074740008E8780008FD
:1043A000C80100202DE9F84F044600F0FF0810195D
:1043B0000D46DDE90A761FFA80FA58191FFA80F9CE
:1043C0004FF0000B11E0544502D3E819444685B282
:1043D0004D450FD23B4629462046CDF800B0FFF7A9
:1043E0007BFF04EB570084B2761C3278A2F12000E8
:1043F0005E28E8D9BDE8F88F0248034900890880A3
:1044000070470000C8010020FE07006C024A1080BF
:10441000901C018070470000FE07006C38B5012138
:10442000482000F03FFD2024ADF8004010208DF81A
:10443000030003200B4D8DF8020069462846FCF767
:1044400019FB20212846FCF798FBADF80040064CEC
:1044500069462046FCF70EFB20212046FCF78DFB29
:1044600038BD0000000C014000180140FEE7704715
:1044700030B50F23C27801780125F2B1144A1268D1
:1044800001F1E02102F4E062C2F5E062120AC2F139
:104490000404D3404278A24084781C401443220193
:1044A00081F80024007800F01F018D404009800051
:1044B00000F1E020C0F8005130BD01F01F00854040
:1044C0004809800000F1E020C0F8805130BD0000B4
:1044D0000CED00E002490843024908607047000003
:1044E0000000FA050CED00E00021801C05280BD22D
:1044F000DFE800F003050A070900B02104E0982175
:1045000002E0182100E03021552000F057BE70B5C0
:10451000802622255E24801C052813D2DFE800F0C7
:104520000307120B0F00402611252F240AE06626F0
:104530001B254B2406E099262825712402E0C0267D
:1045400033258D2431464F2000F038FE314650206F
:1045500000F034FE0021512000F030FE29465220A8
:1045600000F02CFE2146532000F028FE3146542056
:1045700000F024FEBDE870409E21582000F01EBED1
:104580004021801C05280BD2DFE800F003050A0754
:104590000900302104E0382102E0502100E06021D0
:1045A000562000F00BBE0000F8B50024012140F2B7
:1045B0003D1000F077FC4FF48075ADF800504826B0
:1045C0008DF803600320354F8DF8020069463846A8
:1045D000FCF750FA29463846FCF7CFFA1820ADF818
:1045E00000002F4F10258DF8035069463846FCF720
:1045F00041FA18213846FCF7C0FAFF20ADF8000058
:104600008DF8036069462748FCF734FA4020ADF87E
:104610000000254E8DF8035069463046FCF72AFA13
:1046200040213046FCF7A9FA4FF44046ADF800604F
:104630008DF803501D4D69462846FCF71BFA31469C
:104640002846FCF79AFA01211948FCF761FA00F0B4
:104650007FFC8021122000F0B1FD08B10120F8BDDF
:10466000322001F013FB0B2000F004FD732804D16D
:104670000A2000F0FFFC762801D00220F8BD0D4D85
:1046800005EB4400417815F8140000F097FD641C18
:10469000A4B2A82CF4D30020F8BD0000000801400B
:1046A000000C0140001001400014014000200140B6
:1046B00000023000348C000810B505283AD2DFE83B
:1046C00000F0030D17212B00E721132000F076FDE9
:1046D0000021012000F072FD002126E0E5211320D9
:1046E00000F06CFD5A21012000F068FD5C211CE007
:1046F000E521132000F062FD5821012000F05EFD4D
:10470000602112E0E521132000F058FD84210120F2
:1047100000F054FD4C2108E0E521132000F04EFD8F
:104720009621012000F04AFD4021BDE81040022002
:1047300000F044BD10BD10B507283BD2DFE800F003
:10474000040608121C262C0004210CE0242100E0A1
:1047500014213A2000F032FD8021672000F02EFD68
:10476000802122E014213A2000F028FD80216720DA
:1047700000F024FDC02118E014213A2000F01EFDB5
:104780004021672000F01AFD40210EE014213A205C
:1047900000F014FDC021E0E714213A2000F00EFDE6
:1047A0004021672000F00AFDA021BDE810406820EC
:1047B00000F004BD10BD2DE9F041054600EB4200BC
:1047C00086B201EB430084B20F46B4F5447F02D9B0
:1047D000A4F54474A4B2032000F04CFC06F00302DC
:1047E000294600F0F00062F39F010143032000F02E
:1047F000E5FCC5F38701192000F0E0FCC6F3870152
:104800001A2000F0DBFC322000F034FCC7F3C701B3
:10481000172000F0D3FCC4F3C701BDE8F041182015
:1048200000F0CCBC2DE9F047DFF8E09099F80000EB
:10483000002868D00420FFF719FB35494FF4A07217
:104840008888A0F5C853633B08D0A0F5AA43103B65
:1048500014D0A0F5A643103B10D01FE0088849886B
:10486000F038A1F5A07101EBD17100EBD0701346C7
:10487000C1F34F01C0F34F00F0220DE008884988D2
:10488000A0F5A070F03901EBD17100EBD070C1F34D
:104890004F01C0F34F00F023FFF760FCFFF7ACFDC2
:1048A0001C480027C0F8B8711B4C10212160251F3F
:1048B000296021600122C0F8B8212960174EDFF875
:1048C000608038464FF6FF734FF4963A2160B26825
:1048D000296003EA02222160D6F808C029600CF0A2
:1048E000FF0C4CEA020CA8F800C0401C5045EDD368
:1048F0000C4989F800700878401C0870BDE8F04742
:104900000020FFF7B3BABDE8F08700005200002096
:10491000C801002000002442140C01400010014096
:104920000008006C5500002010B5001D092815D2A4
:10493000DFE800F01F1D12100E0C0A0705004821C9
:1049400000E03821062409E02821FBE71821F9E7D7
:104950000821F7E7082100E018210E249B2000F031
:104960002DFC2146BDE81040AB2000F027BC2821DB
:10497000F3E73821F1E710B5011D08290BD8040130
:104980004034E1B2A72000F019FCE1B2BDE81040CC
:10499000A82000F013BC10BD011D082906D8202155
:1049A00001EB8000C1B29C2000F008BC7047000001
:1049B000F8B50024012140F23D1000F073FA4FF4E5
:1049C0008075ADF8005048268DF803600320424FF3
:1049D0008DF8020069463846FCF74CF829463846FF
:1049E000FCF7CBF81820ADF800003C4F10258DF8EF
:1049F000035069463846FCF73DF818213846FCF765
:104A0000BCF8FF20ADF800008DF80360694634481B
:104A1000FCF730F84020ADF80000324E8DF803501E
:104A200069463046FCF726F840213046FCF7A5F8E9
:104A30004FF44046ADF800608DF803502A4D6946AA
:104A40002846FCF717F831462846FCF796F801216E
:104A50002648FCF75DF800F07BFA8021122000F078
:104A6000ADFB08B10120F8BD322001F00FF91C2088
:104A700000F000FB4FF6FF7505EA00261D2000F050
:104A8000F9FA40EA0601A1F5FE40A23803D018A0C9
:104A9000FBF7ECFBE6E70A2000F0ECFA05EA00255C
:104AA0000B2000F0E7FA40EA0501A1F5EE402138BD
:104AB00004D012A0FBF7DAFB0220F8BD124D05EB83
:104AC0004400417815F8140000F078FB641CA4B28F
:104AD000412CF4D30020F8BD00080140000C014037
:104AE000001001400014014000200140000230008D
:104AF0004D49443A25640D0A000000004849443AF3
:104B000025640D0A00000000848D000810B50628F9
:104B100047D2DFE800F003061D27313CFF211320B8
:104B200009E0FD21132000F049FB5A21012000F08B
:104B300045FB5C2129E000F041FB65210E2000F0DF
:104B40003DFB00212D2000F039FB00212E2024E028
:104B5000FD21132000F032FB5821012000F02EFB34
:104B6000602112E0FD21132000F028FB84210120A8
:104B700000F024FB4C2108E0FD21132000F01EFB77
:104B80009621012000F01AFB40210220D3E7FF21EB
:104B9000132000F013FBE5210E20BDE8104000F0CB
:104BA0000DBB10BD10B5072840D2DFE800F00406A9
:104BB00009131D273100062103E04621A62031E01C
:104BC0002621A62000F0FAFA8021602000F0F6FAF3
:104BD000802126E01E21A62000F0F0FA802160202E
:104BE00000F0ECFAC0211CE01E21A62000F0E6FA3D
:104BF0006021084600F0E2FA602112E01E21A620A2
:104C000000F0DCFAA021602000F0D8FA402108E092
:104C10001E21A62000F0D2FA4021602000F0CEFA3A
:104C2000A0216120BDE8104000F0C8BA10BD2DE9F8
:104C3000F0470C4605464AB3C5F5207000EBD0702E
:104C4000C0F34F07C4F5F07000EBD070C0F34F060F
:104C50000621122000F0B2FA2321172000F0AEFA4C
:104C6000A021182000F0AAFA0721192000F0A6FAC6
:104C7000F0211A2000F0A2FA0021322000F09EFA62
:104C8000A021292000F09AFAF02128E0C5F5A070B3
:104C900000EBD070C0F34F07C4F1F00000EBD07010
:104CA000C0F34F064621122000F088FA3F2117205A
:104CB00000F084FA5021182000F080FA0321192016
:104CC00000F07CFA78211A2000F078FA00213220D6
:104CD00000F074FA5021292000F070FA78212C207D
:104CE00000F06CFA172000F0C5F900EB9700C1B294
:104CF000172000F063FAC5F387018A46182000F0F8
:104D00005DFA192000F0B6F900EB5600C1B2192087
:104D100000F054FAC4F3470189461A2000F04EFA15
:104D2000322000F0A7F98046F007400E07F003019B
:104D300004F0010640EA011040EA860105F0030490
:104D4000214341EA0801322000F038FA5146292077
:104D500000F034FA49462C2000F030FA2A2000F006
:104D600089F944EA080444EA8601BDE8F0472A20AC
:104D700000F024BA2DE9F05FDFF8D8B09BF800000E
:104D8000002865D00420FFF771F8334C4FF4A0756C
:104D9000F02320886188A0F5A070F03901EBD17173
:104DA00000EBD070C1F34F01C0F34F002A46FFF76C
:104DB000D5F9A088A0F5C851633910D12088618841
:104DC000A0F5A070F03901EBD17100EBD070C1F308
:104DD0004F01C0F34F002B46F022FFF7BFF9FFF75A
:104DE0000BFB1E484FF0000AC0F8B8A11C4E102162
:104DF0003160371F396031600122C0F8B821396055
:104E0000A946184DDFF8608054464FF6FF73002026
:104E10003160AA68396003EA02223160D5F808C01F
:104E200039600CF0FF0C4CEA020CA8F800C0401CE2
:104E30004845EDD3641CF02CE9D30C488BF800A056
:104E40000178491C0170BDE8F05F0020FFF70EB843
:104E5000BDE8F09F52000020C8010020000024425D
:104E6000140C0140001001400008006C55000020A7
:104E700070470000044A0029516901D0014300E055
:104E8000814351617047000000100240044A00292C
:104E9000D16901D0014300E08143D1617047000036
:104EA00000100240044A0029916901D0014300E04A
:104EB00081439161704700000010024030B5204AE4
:104EC0005168204B11F00C0103D0042901D00829AE
:104ED00001D0036012E05168536801F470114FF083
:104EE000020413F4803F04EB914102D053689B030A
:104EF00001D5154B00E0134B5943016051680F2356
:104F000003EA1111114B5C5C0168E1404160546897
:104F1000072505EA14241C5D21FA04F48460546812
:104F200005EAD4241B5DD940C1605268032303EA1B
:104F30009232064B1B1F9A5CB1FBF2F1016130BD4E
:104F40000010024000127A0000093D0068000020B5
:104F500038B501214FF49070FFF7A4FF4FF40055CE
:104F6000ADF8005048208DF803000320114C8DF857
:104F7000020069462046FBF77DFD29462046FBF7E7
:104F8000FCFD0820ADF8000010200B4D8DF803004B
:104F900069462846FBF76EFD08212846FBF7EDFD24
:104FA000606820F470006060606840F440106060E9
:104FB00038BD0000002001400014014070B53220CF
:104FC00000F07EFE0C4D0120C5F8B4010B4EC6F872
:104FD0008C01322005F5DA7506F5C67600F070FE14
:104FE00000243460322000F06BFE2C60BDE870407D
:104FF000322000F065BE0000000024420080224202
:105000002DE9F047184F0024786820F4700078608C
:10501000786840F400007860DFF85090144E08255E
:105020004FF00108A246322000F04AFEC6F88C81FB
:105030006006040ED9F8340108B1641CE4B23220D1
:1050400000F03EFEC6F88CA16D1E15F0FF05EAD1FA
:10505000786820F470007860786840F440107860D8
:105060002046BDE8F08700000020014000002442F7
:105070000080224210B5044600F022F8422000F0E1
:1050800055F8642000F01CFE204600F04FF8642024
:1050900000F016FE00F02EF8642000F011FE00F083
:1050A0000FF8432000F042F8642000F009FEFFF7FB
:1050B000A7FF0446FFF782FF00F01CF8204610BD52
:1050C00070B50A4E0120C6F8B401094DC5F88C012F
:1050D000322005F5C67506F5DA7600F0F1FD0024FC
:1050E0003460322000F0ECFD2C6070BD00002442E2
:1050F0000080224270B50B4C0020C4F8B40132206D
:1051000004F5DA7400F0DCFD07480125C0F88C5185
:10511000322000F0D5FD2560BDE87040322000F05F
:10512000CFBD000000002442008022422DE9F0475C
:1051300000241F4E1F4F0546A0464FF001092806C8
:1051400001D5484600E04046C6F8B4016806050EA1
:10515000322000F0B5FDC7F88C91322000F0B0FD90
:10516000C7F88C81641CE4B2082CE8D3124C606848
:1051700020F470006060606840F4000060603220DD
:1051800000F09EFDC7F88C91322000F099FDD6F812
:10519000340100B10120C7F88C81616821F47001ED
:1051A0006160616841F440116160BDE8F087000012
:1051B00000002442008022420020014070B50D46CC
:1051C00006460024FFF77CFF4220FFF7AFFF00B147
:1051D0000124642000F074FD3046FFF7A7FF00B102
:1051E0000124642000F06CFD2846FFF79FFF00B10A
:1051F0000124FFF77FFF204670BD70470CB50022E9
:10520000264800920192016841F4803101604FF418
:10521000A063016801F4003101910099491C0091DB
:10522000019911B900999942F3D10168890333D5E5
:10523000012101911A490A6842F010020A600A68C5
:1052400022F003020A600A6842F002020A60416822
:10525000416041684160416841F48061416041685A
:1052600021F47C114160416841F4E811416001681A
:1052700041F08071016001688901FCD5416821F02D
:1052800003014160416841F0020141604168C1F39E
:1052900081010229FAD10CBD01920CBD001002401F
:1052A000002002404FF0E0210428086903D020F0DC
:1052B00004000861704740F00400FAE770470000FE
:1052C0000F4810B5016841F00101016041680D4AC5
:1052D0001140416001680C4A11400160016821F4ED
:1052E00080210160416821F4FE0141604FF41F01FB
:1052F0008160FFF783FF05494FF00060086010BD33
:10530000001002400000FFF8FFFFF6FE08ED00E08D
:1053100070B5048C24F001040484058B048C4FF6D2
:10532000FF7606EA0313134325F0F3050E4A2B43D9
:1053300090420ED00D4A90420BD0B0F1804F08D071
:105340000B4A904205D00B4A904202D00A4A904242
:1053500002D124F0020201E024F00A020A4342F0E2
:1053600001010383018470BD002C01400034014021
:105370000004004000080040000C0040F0B5048C20
:1053800024F010040484078B048C4FF6FF7527F477
:10539000734705EA03333B4305EA02221A43114BE4
:1053A00005EA011698420ED00F4B98420BD0B0F18F
:1053B000804F08D00D4B984205D00D4B984202D03B
:1053C0000C4B984205D124F02001314341F01001EB
:1053D00004E024F0A0030B4343F010010283018496
:1053E000F0BD0000002C01400034014000040040EA
:1053F00000080040000C004010B50A4C0121204676
:1054000000F023F900280AD00121204600F003F91A
:105410000549D1F8940118B10020C1F8940110BDDC
:105420000120FAE7000400400000234210B50C4CB4
:105430000121204600F009F901280AD10948016933
:1054400088470021204600F0B3F96421204600F08F
:10545000ADF92046BDE81040012100F0DCB80000A5
:1054600000080040D4000020F0B50C46074687B085
:1054700001210820FFF70AFD01210420FFF712FD9A
:105480000220ADF8180003258DF81A5004268DF877
:105490001B6006A91248FBF7EDFAADF81070ADF8E5
:1054A0000C4000240F4FADF81240ADF80E4003A998
:1054B000384600F0A7F90120ADF80400ADF800600F
:1054C000ADF80240ADF80640ADF8085069463846E0
:1054D00000F0C8F80121384600F0A0F807B0F0BD90
:1054E00000080140000C004070B51F4C1F4D207893
:1054F000000633D40121284600F0A7F838B12178FE
:10550000480604D5C843800612D0491C21700221E8
:10551000284600F09AF808B3217848060FD541F0E4
:1055200080002070284600F083F86080002112E09F
:1055300041F0800020704FF6FF706080E7E70020A8
:10554000207060800146284600F032F92078022160
:1055500040F040002070284600F022F92846BDE8BF
:105560007040032100F057B854000020000C0040A8
:1055700070B5094D0121284600F067F830B1074C9D
:1055800007A06178FAF772FE002060702846BDE837
:105590007040012100F03FB800100040540000208E
:1055A0006672616D653A25646670730D0A000000CD
:1055B0007FB50D46044601211020FFF767FCADF8CA
:1055C00004400020ADF80050104CADF80600ADF8D6
:1055D00002006946204600F015F9012241212046CB
:1055E00000F0D6F80121204600F018F836208DF89A
:1055F0000C0001208DF80D0003218DF80E108DF8A0
:105600000F0003A8FEF734FF7FBD0000001000402C
:10561000C94301827047C94301827047002901884C
:1056200002D041F0010101E021F001010180704749
:10563000808E7047008F7047808C70470246002034
:10564000128A0A4200D00120704702460020138AC5
:1056500092890B4202EA010202D0002A00D0012006
:10566000704700002DE9F84F0D4604460888434F67
:10567000DFF80CC1DFF80C81DFF80C914988AA88AB
:105680002B894FF0804A48B3042830D04FF6FF767C
:105690000828934634D0208C9E4620F480502084E5
:1056A000A38B208C06EA0132009223F4734306EAAE
:1056B0000B221A4306EA0E331343BC420AD0644558
:1056C00008D0544506D0444504D04C4502D02F4A5A
:1056D000944245D120F40050009943E02046FFF762
:1056E00017FEE9882046BDE8F84F00F063B8204671
:1056F000FFF744FEE9882046BDE8F84F00F062B8A5
:10570000208C20F480702084B4F81CE0208C06EA01
:10571000031306EA01222EF0F30E43EA0B0343EAD9
:105720000E030092BC420AD0644508D0544506D00E
:10573000444504D04C4502D0144A944203D120F48D
:105740000070009901E020F42060084340F480706C
:10575000A3832084E9882046BDE8F84F00F03EB8D6
:1057600020F40240084340F48050A3832084E98859
:105770002046BDE8F84F00F039B80000002C014089
:10578000003401400004004000080040000C0040CC
:10579000002A828901D00A4300E08A43828170474F
:1057A000028C22F002020A4302847047818570470E
:1057B00081847047028B22F00C020283028B0A4321
:1057C00002837047028B22F440620283028B4FF601
:1057D000FF7303EA01210A4302837047828B22F0A0
:1057E0000C028283828B0A4382837047828B22F46D
:1057F00040628283828B4FF6FF7303EA01210A43E2
:105800008283704730B502881B4C1C4DA0420DD0DE
:10581000A8420BD0B0F1804F08D0194B984205D068
:10582000184B984202D0184B984203D122F07003D3
:105830004A881A43154B984206D0154B984203D01C
:1058400022F44073CA881A4302808A8882850A88B3
:105850000285A0420AD0A84208D00E4A904205D044
:105860000D4A904202D00D4A904201D1097A018638
:105870000121818230BD0000002C01400034014034
:105880000004004000080040000C004000100040F0
:105890000014004000400140004401400048014025
:1058A00070B50446002504E000F008F8A84200D9CD
:1058B0000546641EE4B2F7D2284670BD70B500F00C
:1058C0006FF84FF60B640B4D08E0FFF7B5FEA042F2
:1058D00004D92846BDE87040FFF7AEBE0421284633
:1058E000FFF7ACFE00282846EFD0BDE87040FFF778
:1058F000A1BE0000000C004030B5401E81B285B052
:105900004FF6FF70FFF7B0FD00246D46FFF7D6FF9E
:1059100025F814000A2000F0B9F9641CE4B20A2C3E
:10592000F4D300214C1CE0B20BE035F8113035F80F
:105930001020934203D925F8112025F81030401C7F
:10594000C0B20A28F1D3E1B20929EBD30021022029
:1059500035F81020401C1144C0B289B20828F7D392
:105960000620B1FBF0F0074C6080618806A0FAF7D2
:105970007DFC6088B0F5004F02D3012005B030BD3A
:105980000020FBE74E000020747061645F64656670
:1059900061756C745F76616C3A25640D0A000000D5
:1059A00038B501210420FFF77DFA0220ADF8000090
:1059B00010208DF8030003200F4C8DF8020069467B
:1059C0002046FBF757F802212046FBF7D4F80520C4
:1059D00000F05CF9094D00212846FFF7E9FE05219A
:1059E0002846FFF718FE04218DF80310694620466B
:1059F000FBF740F838BD000000080140000C0040F3
:105A000070B501000D4C4FF000054FF0030002D0BF
:105A1000002106202170FFF743FF6188643188422E
:105A2000207804D900B901250320207000E010B1CE
:105A3000C0B2401E2070284670BD00004E000020FD
:105A40007FB50D46044601210420FFF71FFAADF88B
:105A500004400020ADF80050104CADF80600ADF841
:105A6000020069462046FFF7CDFE01224121204673
:105A7000FFF78EFE1E218DF80C1003218DF80D10FE
:105A80008DF80E1001208DF80F0003A8FEF7F0FC32
:105A900001212046FFF7C2FD7FBD00000008004045
:105AA00070B5154C40F22551204600F035F800281D
:105AB0000ED0204600F0BEF8104AC1B21088030490
:105AC00006D444044FF0000306D50A2901D0138000
:105AD00070BD40F400400DE00D2909D0C0F30D0465
